{
	"Foundry_nft/src/Sublesson/Callanything.sol": {
		"CallAnything": {
			"abi": [
				{
					"inputs": [
						{
							"internalType": "address",
							"name": "someAddress",
							"type": "address"
						},
						{
							"internalType": "uint256",
							"name": "amount",
							"type": "uint256"
						}
					],
					"name": "callTransferFunctionDirectly",
					"outputs": [
						{
							"internalType": "bytes4",
							"name": "",
							"type": "bytes4"
						},
						{
							"internalType": "bool",
							"name": "",
							"type": "bool"
						}
					],
					"stateMutability": "nonpayable",
					"type": "function"
				},
				{
					"inputs": [
						{
							"internalType": "address",
							"name": "someAddress",
							"type": "address"
						},
						{
							"internalType": "uint256",
							"name": "amount",
							"type": "uint256"
						}
					],
					"name": "callTransferFunctionDirectlyTwo",
					"outputs": [
						{
							"internalType": "bytes4",
							"name": "",
							"type": "bytes4"
						},
						{
							"internalType": "bool",
							"name": "",
							"type": "bool"
						}
					],
					"stateMutability": "nonpayable",
					"type": "function"
				},
				{
					"inputs": [],
					"name": "getCallData",
					"outputs": [
						{
							"internalType": "bytes",
							"name": "",
							"type": "bytes"
						}
					],
					"stateMutability": "view",
					"type": "function"
				},
				{
					"inputs": [
						{
							"internalType": "address",
							"name": "someAddress",
							"type": "address"
						},
						{
							"internalType": "uint256",
							"name": "amount",
							"type": "uint256"
						}
					],
					"name": "getDataToCallTransfer",
					"outputs": [
						{
							"internalType": "bytes",
							"name": "",
							"type": "bytes"
						}
					],
					"stateMutability": "pure",
					"type": "function"
				},
				{
					"inputs": [],
					"name": "getSelectorFour",
					"outputs": [
						{
							"internalType": "bytes4",
							"name": "selector",
							"type": "bytes4"
						}
					],
					"stateMutability": "pure",
					"type": "function"
				},
				{
					"inputs": [],
					"name": "getSelectorOne",
					"outputs": [
						{
							"internalType": "bytes4",
							"name": "selector",
							"type": "bytes4"
						}
					],
					"stateMutability": "pure",
					"type": "function"
				},
				{
					"inputs": [
						{
							"internalType": "bytes",
							"name": "functionCallData",
							"type": "bytes"
						}
					],
					"name": "getSelectorThree",
					"outputs": [
						{
							"internalType": "bytes4",
							"name": "selector",
							"type": "bytes4"
						}
					],
					"stateMutability": "pure",
					"type": "function"
				},
				{
					"inputs": [],
					"name": "getSelectorTwo",
					"outputs": [
						{
							"internalType": "bytes4",
							"name": "selector",
							"type": "bytes4"
						}
					],
					"stateMutability": "view",
					"type": "function"
				},
				{
					"inputs": [],
					"name": "getSignatureOne",
					"outputs": [
						{
							"internalType": "string",
							"name": "",
							"type": "string"
						}
					],
					"stateMutability": "pure",
					"type": "function"
				},
				{
					"inputs": [],
					"name": "s_amount",
					"outputs": [
						{
							"internalType": "uint256",
							"name": "",
							"type": "uint256"
						}
					],
					"stateMutability": "view",
					"type": "function"
				},
				{
					"inputs": [],
					"name": "s_someAddress",
					"outputs": [
						{
							"internalType": "address",
							"name": "",
							"type": "address"
						}
					],
					"stateMutability": "view",
					"type": "function"
				},
				{
					"inputs": [
						{
							"internalType": "address",
							"name": "someAddress",
							"type": "address"
						},
						{
							"internalType": "uint256",
							"name": "amount",
							"type": "uint256"
						}
					],
					"name": "transfer",
					"outputs": [],
					"stateMutability": "nonpayable",
					"type": "function"
				}
			],
			"devdoc": {
				"kind": "dev",
				"methods": {},
				"version": 1
			},
			"evm": {
				"assembly": "    /* \"Foundry_nft/src/Sublesson/Callanything.sol\":569:4035  contract CallAnything {... */\n  mstore(0x40, 0x80)\n  callvalue\n  dup1\n  iszero\n  tag_1\n  jumpi\n  0x00\n  dup1\n  revert\ntag_1:\n  pop\n  dataSize(sub_0)\n  dup1\n  dataOffset(sub_0)\n  0x00\n  codecopy\n  0x00\n  return\nstop\n\nsub_0: assembly {\n        /* \"Foundry_nft/src/Sublesson/Callanything.sol\":569:4035  contract CallAnything {... */\n      mstore(0x40, 0x80)\n      callvalue\n      dup1\n      iszero\n      tag_1\n      jumpi\n      0x00\n      dup1\n      revert\n    tag_1:\n      pop\n      jumpi(tag_2, lt(calldatasize, 0x04))\n      shr(0xe0, calldataload(0x00))\n      dup1\n      0xa9059cbb\n      gt\n      tag_15\n      jumpi\n      dup1\n      0xa9059cbb\n      eq\n      tag_9\n      jumpi\n      dup1\n      0xaad229d5\n      eq\n      tag_10\n      jumpi\n      dup1\n      0xb20d9446\n      eq\n      tag_11\n      jumpi\n      dup1\n      0xc6e93bad\n      eq\n      tag_12\n      jumpi\n      dup1\n      0xce6eb7ff\n      eq\n      tag_13\n      jumpi\n      dup1\n      0xfbf6d515\n      eq\n      tag_14\n      jumpi\n      jump(tag_2)\n    tag_15:\n      dup1\n      0x0bf9aa4c\n      eq\n      tag_3\n      jumpi\n      dup1\n      0x25435a56\n      eq\n      tag_4\n      jumpi\n      dup1\n      0x7c0c5f23\n      eq\n      tag_5\n      jumpi\n      dup1\n      0x852d52fa\n      eq\n      tag_6\n      jumpi\n      dup1\n      0x9a41d3ad\n      eq\n      tag_7\n      jumpi\n      dup1\n      0xa5694e4a\n      eq\n      tag_8\n      jumpi\n    tag_2:\n      0x00\n      dup1\n      revert\n        /* \"Foundry_nft/src/Sublesson/Callanything.sol\":2744:2898  function getCallData() public view returns (bytes memory) {... */\n    tag_3:\n      tag_16\n      tag_17\n      jump\t// in\n    tag_16:\n      mload(0x40)\n      tag_18\n      swap2\n      swap1\n      tag_19\n      jump\t// in\n    tag_18:\n      mload(0x40)\n      dup1\n      swap2\n      sub\n      swap1\n      return\n        /* \"Foundry_nft/src/Sublesson/Callanything.sol\":3755:3866  function getSelectorFour() public pure returns (bytes4 selector) {... */\n    tag_4:\n      tag_20\n      tag_21\n      jump\t// in\n    tag_20:\n      mload(0x40)\n      tag_22\n      swap2\n      swap1\n      tag_23\n      jump\t// in\n    tag_22:\n      mload(0x40)\n      dup1\n      swap2\n      sub\n      swap1\n      return\n        /* \"Foundry_nft/src/Sublesson/Callanything.sol\":1290:1478  function getDataToCallTransfer(address someAddress, uint256 amount) public pure returns (bytes memory) {... */\n    tag_5:\n      tag_24\n      0x04\n      dup1\n      calldatasize\n      sub\n      dup2\n      add\n      swap1\n      tag_25\n      swap2\n      swap1\n      tag_26\n      jump\t// in\n    tag_25:\n      tag_27\n      jump\t// in\n    tag_24:\n      mload(0x40)\n      tag_28\n      swap2\n      swap1\n      tag_19\n      jump\t// in\n    tag_28:\n      mload(0x40)\n      dup1\n      swap2\n      sub\n      swap1\n      return\n        /* \"Foundry_nft/src/Sublesson/Callanything.sol\":3919:4033  function getSignatureOne() public pure returns (string memory) {... */\n    tag_6:\n      tag_29\n      tag_30\n      jump\t// in\n    tag_29:\n      mload(0x40)\n      tag_31\n      swap2\n      swap1\n      tag_32\n      jump\t// in\n    tag_31:\n      mload(0x40)\n      dup1\n      swap2\n      sub\n      swap1\n      return\n        /* \"Foundry_nft/src/Sublesson/Callanything.sol\":1139:1284  function getSelectorOne() public pure returns (bytes4 selector) {... */\n    tag_7:\n      tag_33\n      tag_34\n      jump\t// in\n    tag_33:\n      mload(0x40)\n      tag_35\n      swap2\n      swap1\n      tag_23\n      jump\t// in\n    tag_35:\n      mload(0x40)\n      dup1\n      swap2\n      sub\n      swap1\n      return\n        /* \"Foundry_nft/src/Sublesson/Callanything.sol\":1565:1937  function callTransferFunctionDirectly(address someAddress, uint256 amount) public returns (bytes4, bool) {... */\n    tag_8:\n      tag_36\n      0x04\n      dup1\n      calldatasize\n      sub\n      dup2\n      add\n      swap1\n      tag_37\n      swap2\n      swap1\n      tag_26\n      jump\t// in\n    tag_37:\n      tag_38\n      jump\t// in\n    tag_36:\n      mload(0x40)\n      tag_39\n      swap3\n      swap2\n      swap1\n      tag_40\n      jump\t// in\n    tag_39:\n      mload(0x40)\n      dup1\n      swap2\n      sub\n      swap1\n      return\n        /* \"Foundry_nft/src/Sublesson/Callanything.sol\":661:815  function transfer(address someAddress, uint256 amount) public {... */\n    tag_9:\n      tag_41\n      0x04\n      dup1\n      calldatasize\n      sub\n      dup2\n      add\n      swap1\n      tag_42\n      swap2\n      swap1\n      tag_26\n      jump\t// in\n    tag_42:\n      tag_43\n      jump\t// in\n    tag_41:\n      stop\n        /* \"Foundry_nft/src/Sublesson/Callanything.sol\":597:625  address public s_someAddress */\n    tag_10:\n      tag_44\n      tag_45\n      jump\t// in\n    tag_44:\n      mload(0x40)\n      tag_46\n      swap2\n      swap1\n      tag_47\n      jump\t// in\n    tag_46:\n      mload(0x40)\n      dup1\n      swap2\n      sub\n      swap1\n      return\n        /* \"Foundry_nft/src/Sublesson/Callanything.sol\":1976:2294  function callTransferFunctionDirectlyTwo(address someAddress, uint256 amount) public returns (bytes4, bool) {... */\n    tag_11:\n      tag_48\n      0x04\n      dup1\n      calldatasize\n      sub\n      dup2\n      add\n      swap1\n      tag_49\n      swap2\n      swap1\n      tag_26\n      jump\t// in\n    tag_49:\n      tag_50\n      jump\t// in\n    tag_48:\n      mload(0x40)\n      tag_51\n      swap3\n      swap2\n      swap1\n      tag_40\n      jump\t// in\n    tag_51:\n      mload(0x40)\n      dup1\n      swap2\n      sub\n      swap1\n      return\n        /* \"Foundry_nft/src/Sublesson/Callanything.sol\":631:654  uint256 public s_amount */\n    tag_12:\n      tag_52\n      tag_53\n      jump\t// in\n    tag_52:\n      mload(0x40)\n      tag_54\n      swap2\n      swap1\n      tag_55\n      jump\t// in\n    tag_54:\n      mload(0x40)\n      dup1\n      swap2\n      sub\n      swap1\n      return\n        /* \"Foundry_nft/src/Sublesson/Callanything.sol\":3437:3685  function getSelectorThree(bytes calldata functionCallData) public pure returns (bytes4 selector) {... */\n    tag_13:\n      tag_56\n      0x04\n      dup1\n      calldatasize\n      sub\n      dup2\n      add\n      swap1\n      tag_57\n      swap2\n      swap1\n      tag_58\n      jump\t// in\n    tag_57:\n      tag_59\n      jump\t// in\n    tag_56:\n      mload(0x40)\n      tag_60\n      swap2\n      swap1\n      tag_23\n      jump\t// in\n    tag_60:\n      mload(0x40)\n      dup1\n      swap2\n      sub\n      swap1\n      return\n        /* \"Foundry_nft/src/Sublesson/Callanything.sol\":2372:2694  function getSelectorTwo() public view returns (bytes4 selector) {... */\n    tag_14:\n      tag_61\n      tag_62\n      jump\t// in\n    tag_61:\n      mload(0x40)\n      tag_63\n      swap2\n      swap1\n      tag_23\n      jump\t// in\n    tag_63:\n      mload(0x40)\n      dup1\n      swap2\n      sub\n      swap1\n      return\n        /* \"Foundry_nft/src/Sublesson/Callanything.sol\":2744:2898  function getCallData() public view returns (bytes memory) {... */\n    tag_17:\n        /* \"Foundry_nft/src/Sublesson/Callanything.sol\":2788:2800  bytes memory */\n      0x60\n        /* \"Foundry_nft/src/Sublesson/Callanything.sol\":2880:2884  this */\n      address\n        /* \"Foundry_nft/src/Sublesson/Callanything.sol\":2887:2890  123 */\n      0x7b\n        /* \"Foundry_nft/src/Sublesson/Callanything.sol\":2819:2891  abi.encodeWithSignature(\"transfer(address,uint256)\", address(this), 123) */\n      add(0x24, mload(0x40))\n      tag_65\n      swap3\n      swap2\n      swap1\n      tag_66\n      jump\t// in\n    tag_65:\n      mload(0x40)\n      0x20\n      dup2\n      dup4\n      sub\n      sub\n      dup2\n      mstore\n      swap1\n      0x40\n      mstore\n      and(not(0xffffffffffffffffffffffffffffffffffffffffffffffffffffffff), 0xa9059cbb00000000000000000000000000000000000000000000000000000000)\n      0x20\n      dup3\n      add\n      dup1\n      mload\n      0xffffffffffffffffffffffffffffffffffffffffffffffffffffffff\n      dup4\n      dup2\n      dup4\n      and\n      or\n      dup4\n      mstore\n      pop\n      pop\n      pop\n      pop\n        /* \"Foundry_nft/src/Sublesson/Callanything.sol\":2812:2891  return abi.encodeWithSignature(\"transfer(address,uint256)\", address(this), 123) */\n      swap1\n      pop\n        /* \"Foundry_nft/src/Sublesson/Callanything.sol\":2744:2898  function getCallData() public view returns (bytes memory) {... */\n      swap1\n      jump\t// out\n        /* \"Foundry_nft/src/Sublesson/Callanything.sol\":3755:3866  function getSelectorFour() public pure returns (bytes4 selector) {... */\n    tag_21:\n        /* \"Foundry_nft/src/Sublesson/Callanything.sol\":3803:3818  bytes4 selector */\n      0x00\n        /* \"Foundry_nft/src/Sublesson/Callanything.sol\":3837:3859  this.transfer.selector */\n      shl(0xe0, 0xa9059cbb)\n        /* \"Foundry_nft/src/Sublesson/Callanything.sol\":3830:3859  return this.transfer.selector */\n      swap1\n      pop\n        /* \"Foundry_nft/src/Sublesson/Callanything.sol\":3755:3866  function getSelectorFour() public pure returns (bytes4 selector) {... */\n      swap1\n      jump\t// out\n        /* \"Foundry_nft/src/Sublesson/Callanything.sol\":1290:1478  function getDataToCallTransfer(address someAddress, uint256 amount) public pure returns (bytes memory) {... */\n    tag_27:\n        /* \"Foundry_nft/src/Sublesson/Callanything.sol\":1379:1391  bytes memory */\n      0x60\n        /* \"Foundry_nft/src/Sublesson/Callanything.sol\":1433:1449  getSelectorOne() */\n      tag_69\n        /* \"Foundry_nft/src/Sublesson/Callanything.sol\":1433:1447  getSelectorOne */\n      tag_34\n        /* \"Foundry_nft/src/Sublesson/Callanything.sol\":1433:1449  getSelectorOne() */\n      jump\t// in\n    tag_69:\n        /* \"Foundry_nft/src/Sublesson/Callanything.sol\":1451:1462  someAddress */\n      dup4\n        /* \"Foundry_nft/src/Sublesson/Callanything.sol\":1464:1470  amount */\n      dup4\n        /* \"Foundry_nft/src/Sublesson/Callanything.sol\":1410:1471  abi.encodeWithSelector(getSelectorOne(), someAddress, amount) */\n      add(0x24, mload(0x40))\n      tag_70\n      swap3\n      swap2\n      swap1\n      tag_71\n      jump\t// in\n    tag_70:\n      mload(0x40)\n      0x20\n      dup2\n      dup4\n      sub\n      sub\n      dup2\n      mstore\n      swap1\n      0x40\n      mstore\n      swap1\n      not(0xffffffffffffffffffffffffffffffffffffffffffffffffffffffff)\n      and\n      0x20\n      dup3\n      add\n      dup1\n      mload\n      0xffffffffffffffffffffffffffffffffffffffffffffffffffffffff\n      dup4\n      dup2\n      dup4\n      and\n      or\n      dup4\n      mstore\n      pop\n      pop\n      pop\n      pop\n        /* \"Foundry_nft/src/Sublesson/Callanything.sol\":1403:1471  return abi.encodeWithSelector(getSelectorOne(), someAddress, amount) */\n      swap1\n      pop\n        /* \"Foundry_nft/src/Sublesson/Callanything.sol\":1290:1478  function getDataToCallTransfer(address someAddress, uint256 amount) public pure returns (bytes memory) {... */\n      swap3\n      swap2\n      pop\n      pop\n      jump\t// out\n        /* \"Foundry_nft/src/Sublesson/Callanything.sol\":3919:4033  function getSignatureOne() public pure returns (string memory) {... */\n    tag_30:\n        /* \"Foundry_nft/src/Sublesson/Callanything.sol\":3967:3980  string memory */\n      0x60\n        /* \"Foundry_nft/src/Sublesson/Callanything.sol\":3992:4026  return \"transfer(address,uint256)\" */\n      mload(0x40)\n      dup1\n      0x40\n      add\n      0x40\n      mstore\n      dup1\n      0x19\n      dup2\n      mstore\n      0x20\n      add\n      0x7472616e7366657228616464726573732c75696e743235362900000000000000\n      dup2\n      mstore\n      pop\n      swap1\n      pop\n        /* \"Foundry_nft/src/Sublesson/Callanything.sol\":3919:4033  function getSignatureOne() public pure returns (string memory) {... */\n      swap1\n      jump\t// out\n        /* \"Foundry_nft/src/Sublesson/Callanything.sol\":1139:1284  function getSelectorOne() public pure returns (bytes4 selector) {... */\n    tag_34:\n        /* \"Foundry_nft/src/Sublesson/Callanything.sol\":1186:1201  bytes4 selector */\n      0x00\n        /* \"Foundry_nft/src/Sublesson/Callanything.sol\":1241:1275  bytes(\"transfer(address,uint256)\") */\n      mload(0x40)\n      dup1\n      0x40\n      add\n      0x40\n      mstore\n      dup1\n      0x19\n      dup2\n      mstore\n      0x20\n      add\n      0x7472616e7366657228616464726573732c75696e743235362900000000000000\n      dup2\n      mstore\n      pop\n        /* \"Foundry_nft/src/Sublesson/Callanything.sol\":1231:1276  keccak256(bytes(\"transfer(address,uint256)\")) */\n      dup1\n      mload\n      swap1\n      0x20\n      add\n      keccak256\n        /* \"Foundry_nft/src/Sublesson/Callanything.sol\":1213:1277  selector = bytes4(keccak256(bytes(\"transfer(address,uint256)\"))) */\n      swap1\n      pop\n        /* \"Foundry_nft/src/Sublesson/Callanything.sol\":1139:1284  function getSelectorOne() public pure returns (bytes4 selector) {... */\n      swap1\n      jump\t// out\n        /* \"Foundry_nft/src/Sublesson/Callanything.sol\":1565:1937  function callTransferFunctionDirectly(address someAddress, uint256 amount) public returns (bytes4, bool) {... */\n    tag_38:\n        /* \"Foundry_nft/src/Sublesson/Callanything.sol\":1656:1662  bytes4 */\n      0x00\n        /* \"Foundry_nft/src/Sublesson/Callanything.sol\":1664:1668  bool */\n      dup1\n        /* \"Foundry_nft/src/Sublesson/Callanything.sol\":1681:1693  bool success */\n      0x00\n        /* \"Foundry_nft/src/Sublesson/Callanything.sol\":1695:1718  bytes memory returnData */\n      dup1\n        /* \"Foundry_nft/src/Sublesson/Callanything.sol\":1730:1734  this */\n      address\n        /* \"Foundry_nft/src/Sublesson/Callanything.sol\":1722:1740  address(this).call */\n      0xffffffffffffffffffffffffffffffffffffffff\n      and\n        /* \"Foundry_nft/src/Sublesson/Callanything.sol\":1836:1852  getSelectorOne() */\n      tag_75\n        /* \"Foundry_nft/src/Sublesson/Callanything.sol\":1836:1850  getSelectorOne */\n      tag_34\n        /* \"Foundry_nft/src/Sublesson/Callanything.sol\":1836:1852  getSelectorOne() */\n      jump\t// in\n    tag_75:\n        /* \"Foundry_nft/src/Sublesson/Callanything.sol\":1854:1865  someAddress */\n      dup8\n        /* \"Foundry_nft/src/Sublesson/Callanything.sol\":1867:1873  amount */\n      dup8\n        /* \"Foundry_nft/src/Sublesson/Callanything.sol\":1813:1874  abi.encodeWithSelector(getSelectorOne(), someAddress, amount) */\n      add(0x24, mload(0x40))\n      tag_76\n      swap3\n      swap2\n      swap1\n      tag_71\n      jump\t// in\n    tag_76:\n      mload(0x40)\n      0x20\n      dup2\n      dup4\n      sub\n      sub\n      dup2\n      mstore\n      swap1\n      0x40\n      mstore\n      swap1\n      not(0xffffffffffffffffffffffffffffffffffffffffffffffffffffffff)\n      and\n      0x20\n      dup3\n      add\n      dup1\n      mload\n      0xffffffffffffffffffffffffffffffffffffffffffffffffffffffff\n      dup4\n      dup2\n      dup4\n      and\n      or\n      dup4\n      mstore\n      pop\n      pop\n      pop\n      pop\n        /* \"Foundry_nft/src/Sublesson/Callanything.sol\":1722:1884  address(this).call(... */\n      mload(0x40)\n      tag_77\n      swap2\n      swap1\n      tag_78\n      jump\t// in\n    tag_77:\n      0x00\n      mload(0x40)\n      dup1\n      dup4\n      sub\n      dup2\n      0x00\n      dup7\n      gas\n      call\n      swap2\n      pop\n      pop\n      returndatasize\n      dup1\n      0x00\n      dup2\n      eq\n      tag_81\n      jumpi\n      mload(0x40)\n      swap2\n      pop\n      and(add(returndatasize, 0x3f), not(0x1f))\n      dup3\n      add\n      0x40\n      mstore\n      returndatasize\n      dup3\n      mstore\n      returndatasize\n      0x00\n      0x20\n      dup5\n      add\n      returndatacopy\n      jump(tag_80)\n    tag_81:\n      0x60\n      swap2\n      pop\n    tag_80:\n      pop\n        /* \"Foundry_nft/src/Sublesson/Callanything.sol\":1680:1884  (bool success, bytes memory returnData) = address(this).call(... */\n      swap2\n      pop\n      swap2\n      pop\n        /* \"Foundry_nft/src/Sublesson/Callanything.sol\":1909:1919  returnData */\n      dup1\n        /* \"Foundry_nft/src/Sublesson/Callanything.sol\":1902:1920  bytes4(returnData) */\n      tag_82\n      swap1\n      tag_83\n      jump\t// in\n    tag_82:\n        /* \"Foundry_nft/src/Sublesson/Callanything.sol\":1922:1929  success */\n      dup3\n        /* \"Foundry_nft/src/Sublesson/Callanything.sol\":1894:1930  return (bytes4(returnData), success) */\n      swap4\n      pop\n      swap4\n      pop\n      pop\n      pop\n        /* \"Foundry_nft/src/Sublesson/Callanything.sol\":1565:1937  function callTransferFunctionDirectly(address someAddress, uint256 amount) public returns (bytes4, bool) {... */\n      swap3\n      pop\n      swap3\n      swap1\n      pop\n      jump\t// out\n        /* \"Foundry_nft/src/Sublesson/Callanything.sol\":661:815  function transfer(address someAddress, uint256 amount) public {... */\n    tag_43:\n        /* \"Foundry_nft/src/Sublesson/Callanything.sol\":770:781  someAddress */\n      dup2\n        /* \"Foundry_nft/src/Sublesson/Callanything.sol\":754:767  s_someAddress */\n      0x00\n      dup1\n        /* \"Foundry_nft/src/Sublesson/Callanything.sol\":754:781  s_someAddress = someAddress */\n      0x0100\n      exp\n      dup2\n      sload\n      dup2\n      0xffffffffffffffffffffffffffffffffffffffff\n      mul\n      not\n      and\n      swap1\n      dup4\n      0xffffffffffffffffffffffffffffffffffffffff\n      and\n      mul\n      or\n      swap1\n      sstore\n      pop\n        /* \"Foundry_nft/src/Sublesson/Callanything.sol\":802:808  amount */\n      dup1\n        /* \"Foundry_nft/src/Sublesson/Callanything.sol\":791:799  s_amount */\n      0x01\n        /* \"Foundry_nft/src/Sublesson/Callanything.sol\":791:808  s_amount = amount */\n      dup2\n      swap1\n      sstore\n      pop\n        /* \"Foundry_nft/src/Sublesson/Callanything.sol\":661:815  function transfer(address someAddress, uint256 amount) public {... */\n      pop\n      pop\n      jump\t// out\n        /* \"Foundry_nft/src/Sublesson/Callanything.sol\":597:625  address public s_someAddress */\n    tag_45:\n      0x00\n      dup1\n      sload\n      swap1\n      0x0100\n      exp\n      swap1\n      div\n      0xffffffffffffffffffffffffffffffffffffffff\n      and\n      dup2\n      jump\t// out\n        /* \"Foundry_nft/src/Sublesson/Callanything.sol\":1976:2294  function callTransferFunctionDirectlyTwo(address someAddress, uint256 amount) public returns (bytes4, bool) {... */\n    tag_50:\n        /* \"Foundry_nft/src/Sublesson/Callanything.sol\":2070:2076  bytes4 */\n      0x00\n        /* \"Foundry_nft/src/Sublesson/Callanything.sol\":2078:2082  bool */\n      dup1\n        /* \"Foundry_nft/src/Sublesson/Callanything.sol\":2095:2107  bool success */\n      0x00\n        /* \"Foundry_nft/src/Sublesson/Callanything.sol\":2109:2132  bytes memory returnData */\n      dup1\n        /* \"Foundry_nft/src/Sublesson/Callanything.sol\":2156:2160  this */\n      address\n        /* \"Foundry_nft/src/Sublesson/Callanything.sol\":2148:2166  address(this).call */\n      0xffffffffffffffffffffffffffffffffffffffff\n      and\n        /* \"Foundry_nft/src/Sublesson/Callanything.sol\":2220:2231  someAddress */\n      dup7\n        /* \"Foundry_nft/src/Sublesson/Callanything.sol\":2233:2239  amount */\n      dup7\n        /* \"Foundry_nft/src/Sublesson/Callanything.sol\":2167:2240  abi.encodeWithSignature(\"transfer(address,uint256)\", someAddress, amount) */\n      add(0x24, mload(0x40))\n      tag_86\n      swap3\n      swap2\n      swap1\n      tag_71\n      jump\t// in\n    tag_86:\n      mload(0x40)\n      0x20\n      dup2\n      dup4\n      sub\n      sub\n      dup2\n      mstore\n      swap1\n      0x40\n      mstore\n      and(not(0xffffffffffffffffffffffffffffffffffffffffffffffffffffffff), 0xa9059cbb00000000000000000000000000000000000000000000000000000000)\n      0x20\n      dup3\n      add\n      dup1\n      mload\n      0xffffffffffffffffffffffffffffffffffffffffffffffffffffffff\n      dup4\n      dup2\n      dup4\n      and\n      or\n      dup4\n      mstore\n      pop\n      pop\n      pop\n      pop\n        /* \"Foundry_nft/src/Sublesson/Callanything.sol\":2148:2241  address(this).call(abi.encodeWithSignature(\"transfer(address,uint256)\", someAddress, amount)) */\n      mload(0x40)\n      tag_87\n      swap2\n      swap1\n      tag_78\n      jump\t// in\n    tag_87:\n      0x00\n      mload(0x40)\n      dup1\n      dup4\n      sub\n      dup2\n      0x00\n      dup7\n      gas\n      call\n      swap2\n      pop\n      pop\n      returndatasize\n      dup1\n      0x00\n      dup2\n      eq\n      tag_90\n      jumpi\n      mload(0x40)\n      swap2\n      pop\n      and(add(returndatasize, 0x3f), not(0x1f))\n      dup3\n      add\n      0x40\n      mstore\n      returndatasize\n      dup3\n      mstore\n      returndatasize\n      0x00\n      0x20\n      dup5\n      add\n      returndatacopy\n      jump(tag_89)\n    tag_90:\n      0x60\n      swap2\n      pop\n    tag_89:\n      pop\n        /* \"Foundry_nft/src/Sublesson/Callanything.sol\":2094:2241  (bool success, bytes memory returnData) =... */\n      swap2\n      pop\n      swap2\n      pop\n        /* \"Foundry_nft/src/Sublesson/Callanything.sol\":2266:2276  returnData */\n      dup1\n        /* \"Foundry_nft/src/Sublesson/Callanything.sol\":2259:2277  bytes4(returnData) */\n      tag_91\n      swap1\n      tag_83\n      jump\t// in\n    tag_91:\n        /* \"Foundry_nft/src/Sublesson/Callanything.sol\":2279:2286  success */\n      dup3\n        /* \"Foundry_nft/src/Sublesson/Callanything.sol\":2251:2287  return (bytes4(returnData), success) */\n      swap4\n      pop\n      swap4\n      pop\n      pop\n      pop\n        /* \"Foundry_nft/src/Sublesson/Callanything.sol\":1976:2294  function callTransferFunctionDirectlyTwo(address someAddress, uint256 amount) public returns (bytes4, bool) {... */\n      swap3\n      pop\n      swap3\n      swap1\n      pop\n      jump\t// out\n        /* \"Foundry_nft/src/Sublesson/Callanything.sol\":631:654  uint256 public s_amount */\n    tag_53:\n      sload(0x01)\n      dup2\n      jump\t// out\n        /* \"Foundry_nft/src/Sublesson/Callanything.sol\":3437:3685  function getSelectorThree(bytes calldata functionCallData) public pure returns (bytes4 selector) {... */\n    tag_59:\n        /* \"Foundry_nft/src/Sublesson/Callanything.sol\":3517:3532  bytes4 selector */\n      0x00\n        /* \"Foundry_nft/src/Sublesson/Callanything.sol\":3645:3668  functionCallData.offset */\n      dup3\n        /* \"Foundry_nft/src/Sublesson/Callanything.sol\":3632:3669  calldataload(functionCallData.offset) */\n      calldataload\n        /* \"Foundry_nft/src/Sublesson/Callanything.sol\":3620:3669  selector := calldataload(functionCallData.offset) */\n      swap1\n      pop\n        /* \"Foundry_nft/src/Sublesson/Callanything.sol\":3437:3685  function getSelectorThree(bytes calldata functionCallData) public pure returns (bytes4 selector) {... */\n      swap3\n      swap2\n      pop\n      pop\n      jump\t// out\n        /* \"Foundry_nft/src/Sublesson/Callanything.sol\":2372:2694  function getSelectorTwo() public view returns (bytes4 selector) {... */\n    tag_62:\n        /* \"Foundry_nft/src/Sublesson/Callanything.sol\":2419:2434  bytes4 selector */\n      0x00\n        /* \"Foundry_nft/src/Sublesson/Callanything.sol\":2446:2475  bytes memory functionCallData */\n      dup1\n        /* \"Foundry_nft/src/Sublesson/Callanything.sol\":2539:2543  this */\n      address\n        /* \"Foundry_nft/src/Sublesson/Callanything.sol\":2546:2549  123 */\n      0x7b\n        /* \"Foundry_nft/src/Sublesson/Callanything.sol\":2478:2550  abi.encodeWithSignature(\"transfer(address,uint256)\", address(this), 123) */\n      add(0x24, mload(0x40))\n      tag_94\n      swap3\n      swap2\n      swap1\n      tag_66\n      jump\t// in\n    tag_94:\n      mload(0x40)\n      0x20\n      dup2\n      dup4\n      sub\n      sub\n      dup2\n      mstore\n      swap1\n      0x40\n      mstore\n      and(not(0xffffffffffffffffffffffffffffffffffffffffffffffffffffffff), 0xa9059cbb00000000000000000000000000000000000000000000000000000000)\n      0x20\n      dup3\n      add\n      dup1\n      mload\n      0xffffffffffffffffffffffffffffffffffffffffffffffffffffffff\n      dup4\n      dup2\n      dup4\n      and\n      or\n      dup4\n      mstore\n      pop\n      pop\n      pop\n      pop\n        /* \"Foundry_nft/src/Sublesson/Callanything.sol\":2446:2550  bytes memory functionCallData = abi.encodeWithSignature(\"transfer(address,uint256)\", address(this), 123) */\n      swap1\n      pop\n        /* \"Foundry_nft/src/Sublesson/Callanything.sol\":2603:2619  functionCallData */\n      dup1\n        /* \"Foundry_nft/src/Sublesson/Callanything.sol\":2620:2621  0 */\n      0x00\n        /* \"Foundry_nft/src/Sublesson/Callanything.sol\":2603:2622  functionCallData[0] */\n      dup2\n      mload\n      dup2\n      lt\n      tag_95\n      jumpi\n      tag_96\n      tag_97\n      jump\t// in\n    tag_96:\n    tag_95:\n      0x20\n      add\n      add\n      mload\n      0xf8\n      shr\n      0xf8\n      shl\n        /* \"Foundry_nft/src/Sublesson/Callanything.sol\":2624:2640  functionCallData */\n      dup2\n        /* \"Foundry_nft/src/Sublesson/Callanything.sol\":2641:2642  1 */\n      0x01\n        /* \"Foundry_nft/src/Sublesson/Callanything.sol\":2624:2643  functionCallData[1] */\n      dup2\n      mload\n      dup2\n      lt\n      tag_98\n      jumpi\n      tag_99\n      tag_97\n      jump\t// in\n    tag_99:\n    tag_98:\n      0x20\n      add\n      add\n      mload\n      0xf8\n      shr\n      0xf8\n      shl\n        /* \"Foundry_nft/src/Sublesson/Callanything.sol\":2645:2661  functionCallData */\n      dup3\n        /* \"Foundry_nft/src/Sublesson/Callanything.sol\":2662:2663  2 */\n      0x02\n        /* \"Foundry_nft/src/Sublesson/Callanything.sol\":2645:2664  functionCallData[2] */\n      dup2\n      mload\n      dup2\n      lt\n      tag_100\n      jumpi\n      tag_101\n      tag_97\n      jump\t// in\n    tag_101:\n    tag_100:\n      0x20\n      add\n      add\n      mload\n      0xf8\n      shr\n      0xf8\n      shl\n        /* \"Foundry_nft/src/Sublesson/Callanything.sol\":2666:2682  functionCallData */\n      dup4\n        /* \"Foundry_nft/src/Sublesson/Callanything.sol\":2683:2684  3 */\n      0x03\n        /* \"Foundry_nft/src/Sublesson/Callanything.sol\":2666:2685  functionCallData[3] */\n      dup2\n      mload\n      dup2\n      lt\n      tag_102\n      jumpi\n      tag_103\n      tag_97\n      jump\t// in\n    tag_103:\n    tag_102:\n      0x20\n      add\n      add\n      mload\n      0xf8\n      shr\n      0xf8\n      shl\n        /* \"Foundry_nft/src/Sublesson/Callanything.sol\":2590:2686  bytes.concat(functionCallData[0], functionCallData[1], functionCallData[2], functionCallData[3]) */\n      add(0x20, mload(0x40))\n      tag_104\n      swap5\n      swap4\n      swap3\n      swap2\n      swap1\n      tag_105\n      jump\t// in\n    tag_104:\n      mload(0x40)\n      0x20\n      dup2\n      dup4\n      sub\n      sub\n      dup2\n      mstore\n      swap1\n      0x40\n      mstore\n        /* \"Foundry_nft/src/Sublesson/Callanything.sol\":2583:2687  bytes4(bytes.concat(functionCallData[0], functionCallData[1], functionCallData[2], functionCallData[3])) */\n      tag_106\n      swap1\n      tag_83\n      jump\t// in\n    tag_106:\n        /* \"Foundry_nft/src/Sublesson/Callanything.sol\":2560:2687  selector =... */\n      swap2\n      pop\n        /* \"Foundry_nft/src/Sublesson/Callanything.sol\":2436:2694  {... */\n      pop\n        /* \"Foundry_nft/src/Sublesson/Callanything.sol\":2372:2694  function getSelectorTwo() public view returns (bytes4 selector) {... */\n      swap1\n      jump\t// out\n        /* \"#utility.yul\":7:105   */\n    tag_107:\n        /* \"#utility.yul\":58:64   */\n      0x00\n        /* \"#utility.yul\":92:97   */\n      dup2\n        /* \"#utility.yul\":86:98   */\n      mload\n        /* \"#utility.yul\":76:98   */\n      swap1\n      pop\n        /* \"#utility.yul\":7:105   */\n      swap2\n      swap1\n      pop\n      jump\t// out\n        /* \"#utility.yul\":111:279   */\n    tag_108:\n        /* \"#utility.yul\":194:205   */\n      0x00\n        /* \"#utility.yul\":228:234   */\n      dup3\n        /* \"#utility.yul\":223:226   */\n      dup3\n        /* \"#utility.yul\":216:235   */\n      mstore\n        /* \"#utility.yul\":268:272   */\n      0x20\n        /* \"#utility.yul\":263:266   */\n      dup3\n        /* \"#utility.yul\":259:273   */\n      add\n        /* \"#utility.yul\":244:273   */\n      swap1\n      pop\n        /* \"#utility.yul\":111:279   */\n      swap3\n      swap2\n      pop\n      pop\n      jump\t// out\n        /* \"#utility.yul\":285:531   */\n    tag_109:\n        /* \"#utility.yul\":366:367   */\n      0x00\n        /* \"#utility.yul\":376:489   */\n    tag_152:\n        /* \"#utility.yul\":390:396   */\n      dup4\n        /* \"#utility.yul\":387:388   */\n      dup2\n        /* \"#utility.yul\":384:397   */\n      lt\n        /* \"#utility.yul\":376:489   */\n      iszero\n      tag_154\n      jumpi\n        /* \"#utility.yul\":475:476   */\n      dup1\n        /* \"#utility.yul\":470:473   */\n      dup3\n        /* \"#utility.yul\":466:477   */\n      add\n        /* \"#utility.yul\":460:478   */\n      mload\n        /* \"#utility.yul\":456:457   */\n      dup2\n        /* \"#utility.yul\":451:454   */\n      dup5\n        /* \"#utility.yul\":447:458   */\n      add\n        /* \"#utility.yul\":440:479   */\n      mstore\n        /* \"#utility.yul\":412:414   */\n      0x20\n        /* \"#utility.yul\":409:410   */\n      dup2\n        /* \"#utility.yul\":405:415   */\n      add\n        /* \"#utility.yul\":400:415   */\n      swap1\n      pop\n        /* \"#utility.yul\":376:489   */\n      jump(tag_152)\n    tag_154:\n        /* \"#utility.yul\":523:524   */\n      0x00\n        /* \"#utility.yul\":514:520   */\n      dup5\n        /* \"#utility.yul\":509:512   */\n      dup5\n        /* \"#utility.yul\":505:521   */\n      add\n        /* \"#utility.yul\":498:525   */\n      mstore\n        /* \"#utility.yul\":347:531   */\n      pop\n        /* \"#utility.yul\":285:531   */\n      pop\n      pop\n      pop\n      jump\t// out\n        /* \"#utility.yul\":537:639   */\n    tag_110:\n        /* \"#utility.yul\":578:584   */\n      0x00\n        /* \"#utility.yul\":629:631   */\n      0x1f\n        /* \"#utility.yul\":625:632   */\n      not\n        /* \"#utility.yul\":620:622   */\n      0x1f\n        /* \"#utility.yul\":613:618   */\n      dup4\n        /* \"#utility.yul\":609:623   */\n      add\n        /* \"#utility.yul\":605:633   */\n      and\n        /* \"#utility.yul\":595:633   */\n      swap1\n      pop\n        /* \"#utility.yul\":537:639   */\n      swap2\n      swap1\n      pop\n      jump\t// out\n        /* \"#utility.yul\":645:1018   */\n    tag_111:\n        /* \"#utility.yul\":731:734   */\n      0x00\n        /* \"#utility.yul\":759:797   */\n      tag_157\n        /* \"#utility.yul\":791:796   */\n      dup3\n        /* \"#utility.yul\":759:797   */\n      tag_107\n      jump\t// in\n    tag_157:\n        /* \"#utility.yul\":813:883   */\n      tag_158\n        /* \"#utility.yul\":876:882   */\n      dup2\n        /* \"#utility.yul\":871:874   */\n      dup6\n        /* \"#utility.yul\":813:883   */\n      tag_108\n      jump\t// in\n    tag_158:\n        /* \"#utility.yul\":806:883   */\n      swap4\n      pop\n        /* \"#utility.yul\":892:957   */\n      tag_159\n        /* \"#utility.yul\":950:956   */\n      dup2\n        /* \"#utility.yul\":945:948   */\n      dup6\n        /* \"#utility.yul\":938:942   */\n      0x20\n        /* \"#utility.yul\":931:936   */\n      dup7\n        /* \"#utility.yul\":927:943   */\n      add\n        /* \"#utility.yul\":892:957   */\n      tag_109\n      jump\t// in\n    tag_159:\n        /* \"#utility.yul\":982:1011   */\n      tag_160\n        /* \"#utility.yul\":1004:1010   */\n      dup2\n        /* \"#utility.yul\":982:1011   */\n      tag_110\n      jump\t// in\n    tag_160:\n        /* \"#utility.yul\":977:980   */\n      dup5\n        /* \"#utility.yul\":973:1012   */\n      add\n        /* \"#utility.yul\":966:1012   */\n      swap2\n      pop\n        /* \"#utility.yul\":735:1018   */\n      pop\n        /* \"#utility.yul\":645:1018   */\n      swap3\n      swap2\n      pop\n      pop\n      jump\t// out\n        /* \"#utility.yul\":1024:1333   */\n    tag_19:\n        /* \"#utility.yul\":1135:1139   */\n      0x00\n        /* \"#utility.yul\":1173:1175   */\n      0x20\n        /* \"#utility.yul\":1162:1171   */\n      dup3\n        /* \"#utility.yul\":1158:1176   */\n      add\n        /* \"#utility.yul\":1150:1176   */\n      swap1\n      pop\n        /* \"#utility.yul\":1222:1231   */\n      dup2\n        /* \"#utility.yul\":1216:1220   */\n      dup2\n        /* \"#utility.yul\":1212:1232   */\n      sub\n        /* \"#utility.yul\":1208:1209   */\n      0x00\n        /* \"#utility.yul\":1197:1206   */\n      dup4\n        /* \"#utility.yul\":1193:1210   */\n      add\n        /* \"#utility.yul\":1186:1233   */\n      mstore\n        /* \"#utility.yul\":1250:1326   */\n      tag_162\n        /* \"#utility.yul\":1321:1325   */\n      dup2\n        /* \"#utility.yul\":1312:1318   */\n      dup5\n        /* \"#utility.yul\":1250:1326   */\n      tag_111\n      jump\t// in\n    tag_162:\n        /* \"#utility.yul\":1242:1326   */\n      swap1\n      pop\n        /* \"#utility.yul\":1024:1333   */\n      swap3\n      swap2\n      pop\n      pop\n      jump\t// out\n        /* \"#utility.yul\":1339:1488   */\n    tag_112:\n        /* \"#utility.yul\":1375:1382   */\n      0x00\n        /* \"#utility.yul\":1415:1481   */\n      0xffffffff00000000000000000000000000000000000000000000000000000000\n        /* \"#utility.yul\":1408:1413   */\n      dup3\n        /* \"#utility.yul\":1404:1482   */\n      and\n        /* \"#utility.yul\":1393:1482   */\n      swap1\n      pop\n        /* \"#utility.yul\":1339:1488   */\n      swap2\n      swap1\n      pop\n      jump\t// out\n        /* \"#utility.yul\":1494:1609   */\n    tag_113:\n        /* \"#utility.yul\":1579:1602   */\n      tag_165\n        /* \"#utility.yul\":1596:1601   */\n      dup2\n        /* \"#utility.yul\":1579:1602   */\n      tag_112\n      jump\t// in\n    tag_165:\n        /* \"#utility.yul\":1574:1577   */\n      dup3\n        /* \"#utility.yul\":1567:1603   */\n      mstore\n        /* \"#utility.yul\":1494:1609   */\n      pop\n      pop\n      jump\t// out\n        /* \"#utility.yul\":1615:1833   */\n    tag_23:\n        /* \"#utility.yul\":1706:1710   */\n      0x00\n        /* \"#utility.yul\":1744:1746   */\n      0x20\n        /* \"#utility.yul\":1733:1742   */\n      dup3\n        /* \"#utility.yul\":1729:1747   */\n      add\n        /* \"#utility.yul\":1721:1747   */\n      swap1\n      pop\n        /* \"#utility.yul\":1757:1826   */\n      tag_167\n        /* \"#utility.yul\":1823:1824   */\n      0x00\n        /* \"#utility.yul\":1812:1821   */\n      dup4\n        /* \"#utility.yul\":1808:1825   */\n      add\n        /* \"#utility.yul\":1799:1805   */\n      dup5\n        /* \"#utility.yul\":1757:1826   */\n      tag_113\n      jump\t// in\n    tag_167:\n        /* \"#utility.yul\":1615:1833   */\n      swap3\n      swap2\n      pop\n      pop\n      jump\t// out\n        /* \"#utility.yul\":1920:2037   */\n    tag_115:\n        /* \"#utility.yul\":2029:2030   */\n      0x00\n        /* \"#utility.yul\":2026:2027   */\n      dup1\n        /* \"#utility.yul\":2019:2031   */\n      revert\n        /* \"#utility.yul\":2043:2160   */\n    tag_116:\n        /* \"#utility.yul\":2152:2153   */\n      0x00\n        /* \"#utility.yul\":2149:2150   */\n      dup1\n        /* \"#utility.yul\":2142:2154   */\n      revert\n        /* \"#utility.yul\":2166:2292   */\n    tag_117:\n        /* \"#utility.yul\":2203:2210   */\n      0x00\n        /* \"#utility.yul\":2243:2285   */\n      0xffffffffffffffffffffffffffffffffffffffff\n        /* \"#utility.yul\":2236:2241   */\n      dup3\n        /* \"#utility.yul\":2232:2286   */\n      and\n        /* \"#utility.yul\":2221:2286   */\n      swap1\n      pop\n        /* \"#utility.yul\":2166:2292   */\n      swap2\n      swap1\n      pop\n      jump\t// out\n        /* \"#utility.yul\":2298:2394   */\n    tag_118:\n        /* \"#utility.yul\":2335:2342   */\n      0x00\n        /* \"#utility.yul\":2364:2388   */\n      tag_173\n        /* \"#utility.yul\":2382:2387   */\n      dup3\n        /* \"#utility.yul\":2364:2388   */\n      tag_117\n      jump\t// in\n    tag_173:\n        /* \"#utility.yul\":2353:2388   */\n      swap1\n      pop\n        /* \"#utility.yul\":2298:2394   */\n      swap2\n      swap1\n      pop\n      jump\t// out\n        /* \"#utility.yul\":2400:2522   */\n    tag_119:\n        /* \"#utility.yul\":2473:2497   */\n      tag_175\n        /* \"#utility.yul\":2491:2496   */\n      dup2\n        /* \"#utility.yul\":2473:2497   */\n      tag_118\n      jump\t// in\n    tag_175:\n        /* \"#utility.yul\":2466:2471   */\n      dup2\n        /* \"#utility.yul\":2463:2498   */\n      eq\n        /* \"#utility.yul\":2453:2516   */\n      tag_176\n      jumpi\n        /* \"#utility.yul\":2512:2513   */\n      0x00\n        /* \"#utility.yul\":2509:2510   */\n      dup1\n        /* \"#utility.yul\":2502:2514   */\n      revert\n        /* \"#utility.yul\":2453:2516   */\n    tag_176:\n        /* \"#utility.yul\":2400:2522   */\n      pop\n      jump\t// out\n        /* \"#utility.yul\":2528:2667   */\n    tag_120:\n        /* \"#utility.yul\":2574:2579   */\n      0x00\n        /* \"#utility.yul\":2612:2618   */\n      dup2\n        /* \"#utility.yul\":2599:2619   */\n      calldataload\n        /* \"#utility.yul\":2590:2619   */\n      swap1\n      pop\n        /* \"#utility.yul\":2628:2661   */\n      tag_178\n        /* \"#utility.yul\":2655:2660   */\n      dup2\n        /* \"#utility.yul\":2628:2661   */\n      tag_119\n      jump\t// in\n    tag_178:\n        /* \"#utility.yul\":2528:2667   */\n      swap3\n      swap2\n      pop\n      pop\n      jump\t// out\n        /* \"#utility.yul\":2673:2750   */\n    tag_121:\n        /* \"#utility.yul\":2710:2717   */\n      0x00\n        /* \"#utility.yul\":2739:2744   */\n      dup2\n        /* \"#utility.yul\":2728:2744   */\n      swap1\n      pop\n        /* \"#utility.yul\":2673:2750   */\n      swap2\n      swap1\n      pop\n      jump\t// out\n        /* \"#utility.yul\":2756:2878   */\n    tag_122:\n        /* \"#utility.yul\":2829:2853   */\n      tag_181\n        /* \"#utility.yul\":2847:2852   */\n      dup2\n        /* \"#utility.yul\":2829:2853   */\n      tag_121\n      jump\t// in\n    tag_181:\n        /* \"#utility.yul\":2822:2827   */\n      dup2\n        /* \"#utility.yul\":2819:2854   */\n      eq\n        /* \"#utility.yul\":2809:2872   */\n      tag_182\n      jumpi\n        /* \"#utility.yul\":2868:2869   */\n      0x00\n        /* \"#utility.yul\":2865:2866   */\n      dup1\n        /* \"#utility.yul\":2858:2870   */\n      revert\n        /* \"#utility.yul\":2809:2872   */\n    tag_182:\n        /* \"#utility.yul\":2756:2878   */\n      pop\n      jump\t// out\n        /* \"#utility.yul\":2884:3023   */\n    tag_123:\n        /* \"#utility.yul\":2930:2935   */\n      0x00\n        /* \"#utility.yul\":2968:2974   */\n      dup2\n        /* \"#utility.yul\":2955:2975   */\n      calldataload\n        /* \"#utility.yul\":2946:2975   */\n      swap1\n      pop\n        /* \"#utility.yul\":2984:3017   */\n      tag_184\n        /* \"#utility.yul\":3011:3016   */\n      dup2\n        /* \"#utility.yul\":2984:3017   */\n      tag_122\n      jump\t// in\n    tag_184:\n        /* \"#utility.yul\":2884:3023   */\n      swap3\n      swap2\n      pop\n      pop\n      jump\t// out\n        /* \"#utility.yul\":3029:3503   */\n    tag_26:\n        /* \"#utility.yul\":3097:3103   */\n      0x00\n        /* \"#utility.yul\":3105:3111   */\n      dup1\n        /* \"#utility.yul\":3154:3156   */\n      0x40\n        /* \"#utility.yul\":3142:3151   */\n      dup4\n        /* \"#utility.yul\":3133:3140   */\n      dup6\n        /* \"#utility.yul\":3129:3152   */\n      sub\n        /* \"#utility.yul\":3125:3157   */\n      slt\n        /* \"#utility.yul\":3122:3241   */\n      iszero\n      tag_186\n      jumpi\n        /* \"#utility.yul\":3160:3239   */\n      tag_187\n      tag_115\n      jump\t// in\n    tag_187:\n        /* \"#utility.yul\":3122:3241   */\n    tag_186:\n        /* \"#utility.yul\":3280:3281   */\n      0x00\n        /* \"#utility.yul\":3305:3358   */\n      tag_188\n        /* \"#utility.yul\":3350:3357   */\n      dup6\n        /* \"#utility.yul\":3341:3347   */\n      dup3\n        /* \"#utility.yul\":3330:3339   */\n      dup7\n        /* \"#utility.yul\":3326:3348   */\n      add\n        /* \"#utility.yul\":3305:3358   */\n      tag_120\n      jump\t// in\n    tag_188:\n        /* \"#utility.yul\":3295:3358   */\n      swap3\n      pop\n        /* \"#utility.yul\":3251:3368   */\n      pop\n        /* \"#utility.yul\":3407:3409   */\n      0x20\n        /* \"#utility.yul\":3433:3486   */\n      tag_189\n        /* \"#utility.yul\":3478:3485   */\n      dup6\n        /* \"#utility.yul\":3469:3475   */\n      dup3\n        /* \"#utility.yul\":3458:3467   */\n      dup7\n        /* \"#utility.yul\":3454:3476   */\n      add\n        /* \"#utility.yul\":3433:3486   */\n      tag_123\n      jump\t// in\n    tag_189:\n        /* \"#utility.yul\":3423:3486   */\n      swap2\n      pop\n        /* \"#utility.yul\":3378:3496   */\n      pop\n        /* \"#utility.yul\":3029:3503   */\n      swap3\n      pop\n      swap3\n      swap1\n      pop\n      jump\t// out\n        /* \"#utility.yul\":3509:3608   */\n    tag_124:\n        /* \"#utility.yul\":3561:3567   */\n      0x00\n        /* \"#utility.yul\":3595:3600   */\n      dup2\n        /* \"#utility.yul\":3589:3601   */\n      mload\n        /* \"#utility.yul\":3579:3601   */\n      swap1\n      pop\n        /* \"#utility.yul\":3509:3608   */\n      swap2\n      swap1\n      pop\n      jump\t// out\n        /* \"#utility.yul\":3614:3783   */\n    tag_125:\n        /* \"#utility.yul\":3698:3709   */\n      0x00\n        /* \"#utility.yul\":3732:3738   */\n      dup3\n        /* \"#utility.yul\":3727:3730   */\n      dup3\n        /* \"#utility.yul\":3720:3739   */\n      mstore\n        /* \"#utility.yul\":3772:3776   */\n      0x20\n        /* \"#utility.yul\":3767:3770   */\n      dup3\n        /* \"#utility.yul\":3763:3777   */\n      add\n        /* \"#utility.yul\":3748:3777   */\n      swap1\n      pop\n        /* \"#utility.yul\":3614:3783   */\n      swap3\n      swap2\n      pop\n      pop\n      jump\t// out\n        /* \"#utility.yul\":3789:4166   */\n    tag_126:\n        /* \"#utility.yul\":3877:3880   */\n      0x00\n        /* \"#utility.yul\":3905:3944   */\n      tag_193\n        /* \"#utility.yul\":3938:3943   */\n      dup3\n        /* \"#utility.yul\":3905:3944   */\n      tag_124\n      jump\t// in\n    tag_193:\n        /* \"#utility.yul\":3960:4031   */\n      tag_194\n        /* \"#utility.yul\":4024:4030   */\n      dup2\n        /* \"#utility.yul\":4019:4022   */\n      dup6\n        /* \"#utility.yul\":3960:4031   */\n      tag_125\n      jump\t// in\n    tag_194:\n        /* \"#utility.yul\":3953:4031   */\n      swap4\n      pop\n        /* \"#utility.yul\":4040:4105   */\n      tag_195\n        /* \"#utility.yul\":4098:4104   */\n      dup2\n        /* \"#utility.yul\":4093:4096   */\n      dup6\n        /* \"#utility.yul\":4086:4090   */\n      0x20\n        /* \"#utility.yul\":4079:4084   */\n      dup7\n        /* \"#utility.yul\":4075:4091   */\n      add\n        /* \"#utility.yul\":4040:4105   */\n      tag_109\n      jump\t// in\n    tag_195:\n        /* \"#utility.yul\":4130:4159   */\n      tag_196\n        /* \"#utility.yul\":4152:4158   */\n      dup2\n        /* \"#utility.yul\":4130:4159   */\n      tag_110\n      jump\t// in\n    tag_196:\n        /* \"#utility.yul\":4125:4128   */\n      dup5\n        /* \"#utility.yul\":4121:4160   */\n      add\n        /* \"#utility.yul\":4114:4160   */\n      swap2\n      pop\n        /* \"#utility.yul\":3881:4166   */\n      pop\n        /* \"#utility.yul\":3789:4166   */\n      swap3\n      swap2\n      pop\n      pop\n      jump\t// out\n        /* \"#utility.yul\":4172:4485   */\n    tag_32:\n        /* \"#utility.yul\":4285:4289   */\n      0x00\n        /* \"#utility.yul\":4323:4325   */\n      0x20\n        /* \"#utility.yul\":4312:4321   */\n      dup3\n        /* \"#utility.yul\":4308:4326   */\n      add\n        /* \"#utility.yul\":4300:4326   */\n      swap1\n      pop\n        /* \"#utility.yul\":4372:4381   */\n      dup2\n        /* \"#utility.yul\":4366:4370   */\n      dup2\n        /* \"#utility.yul\":4362:4382   */\n      sub\n        /* \"#utility.yul\":4358:4359   */\n      0x00\n        /* \"#utility.yul\":4347:4356   */\n      dup4\n        /* \"#utility.yul\":4343:4360   */\n      add\n        /* \"#utility.yul\":4336:4383   */\n      mstore\n        /* \"#utility.yul\":4400:4478   */\n      tag_198\n        /* \"#utility.yul\":4473:4477   */\n      dup2\n        /* \"#utility.yul\":4464:4470   */\n      dup5\n        /* \"#utility.yul\":4400:4478   */\n      tag_126\n      jump\t// in\n    tag_198:\n        /* \"#utility.yul\":4392:4478   */\n      swap1\n      pop\n        /* \"#utility.yul\":4172:4485   */\n      swap3\n      swap2\n      pop\n      pop\n      jump\t// out\n        /* \"#utility.yul\":4491:4581   */\n    tag_127:\n        /* \"#utility.yul\":4525:4532   */\n      0x00\n        /* \"#utility.yul\":4568:4573   */\n      dup2\n        /* \"#utility.yul\":4561:4574   */\n      iszero\n        /* \"#utility.yul\":4554:4575   */\n      iszero\n        /* \"#utility.yul\":4543:4575   */\n      swap1\n      pop\n        /* \"#utility.yul\":4491:4581   */\n      swap2\n      swap1\n      pop\n      jump\t// out\n        /* \"#utility.yul\":4587:4696   */\n    tag_128:\n        /* \"#utility.yul\":4668:4689   */\n      tag_201\n        /* \"#utility.yul\":4683:4688   */\n      dup2\n        /* \"#utility.yul\":4668:4689   */\n      tag_127\n      jump\t// in\n    tag_201:\n        /* \"#utility.yul\":4663:4666   */\n      dup3\n        /* \"#utility.yul\":4656:4690   */\n      mstore\n        /* \"#utility.yul\":4587:4696   */\n      pop\n      pop\n      jump\t// out\n        /* \"#utility.yul\":4702:5018   */\n    tag_40:\n        /* \"#utility.yul\":4815:4819   */\n      0x00\n        /* \"#utility.yul\":4853:4855   */\n      0x40\n        /* \"#utility.yul\":4842:4851   */\n      dup3\n        /* \"#utility.yul\":4838:4856   */\n      add\n        /* \"#utility.yul\":4830:4856   */\n      swap1\n      pop\n        /* \"#utility.yul\":4866:4935   */\n      tag_203\n        /* \"#utility.yul\":4932:4933   */\n      0x00\n        /* \"#utility.yul\":4921:4930   */\n      dup4\n        /* \"#utility.yul\":4917:4934   */\n      add\n        /* \"#utility.yul\":4908:4914   */\n      dup6\n        /* \"#utility.yul\":4866:4935   */\n      tag_113\n      jump\t// in\n    tag_203:\n        /* \"#utility.yul\":4945:5011   */\n      tag_204\n        /* \"#utility.yul\":5007:5009   */\n      0x20\n        /* \"#utility.yul\":4996:5005   */\n      dup4\n        /* \"#utility.yul\":4992:5010   */\n      add\n        /* \"#utility.yul\":4983:4989   */\n      dup5\n        /* \"#utility.yul\":4945:5011   */\n      tag_128\n      jump\t// in\n    tag_204:\n        /* \"#utility.yul\":4702:5018   */\n      swap4\n      swap3\n      pop\n      pop\n      pop\n      jump\t// out\n        /* \"#utility.yul\":5024:5142   */\n    tag_129:\n        /* \"#utility.yul\":5111:5135   */\n      tag_206\n        /* \"#utility.yul\":5129:5134   */\n      dup2\n        /* \"#utility.yul\":5111:5135   */\n      tag_118\n      jump\t// in\n    tag_206:\n        /* \"#utility.yul\":5106:5109   */\n      dup3\n        /* \"#utility.yul\":5099:5136   */\n      mstore\n        /* \"#utility.yul\":5024:5142   */\n      pop\n      pop\n      jump\t// out\n        /* \"#utility.yul\":5148:5370   */\n    tag_47:\n        /* \"#utility.yul\":5241:5245   */\n      0x00\n        /* \"#utility.yul\":5279:5281   */\n      0x20\n        /* \"#utility.yul\":5268:5277   */\n      dup3\n        /* \"#utility.yul\":5264:5282   */\n      add\n        /* \"#utility.yul\":5256:5282   */\n      swap1\n      pop\n        /* \"#utility.yul\":5292:5363   */\n      tag_208\n        /* \"#utility.yul\":5360:5361   */\n      0x00\n        /* \"#utility.yul\":5349:5358   */\n      dup4\n        /* \"#utility.yul\":5345:5362   */\n      add\n        /* \"#utility.yul\":5336:5342   */\n      dup5\n        /* \"#utility.yul\":5292:5363   */\n      tag_129\n      jump\t// in\n    tag_208:\n        /* \"#utility.yul\":5148:5370   */\n      swap3\n      swap2\n      pop\n      pop\n      jump\t// out\n        /* \"#utility.yul\":5376:5494   */\n    tag_130:\n        /* \"#utility.yul\":5463:5487   */\n      tag_210\n        /* \"#utility.yul\":5481:5486   */\n      dup2\n        /* \"#utility.yul\":5463:5487   */\n      tag_121\n      jump\t// in\n    tag_210:\n        /* \"#utility.yul\":5458:5461   */\n      dup3\n        /* \"#utility.yul\":5451:5488   */\n      mstore\n        /* \"#utility.yul\":5376:5494   */\n      pop\n      pop\n      jump\t// out\n        /* \"#utility.yul\":5500:5722   */\n    tag_55:\n        /* \"#utility.yul\":5593:5597   */\n      0x00\n        /* \"#utility.yul\":5631:5633   */\n      0x20\n        /* \"#utility.yul\":5620:5629   */\n      dup3\n        /* \"#utility.yul\":5616:5634   */\n      add\n        /* \"#utility.yul\":5608:5634   */\n      swap1\n      pop\n        /* \"#utility.yul\":5644:5715   */\n      tag_212\n        /* \"#utility.yul\":5712:5713   */\n      0x00\n        /* \"#utility.yul\":5701:5710   */\n      dup4\n        /* \"#utility.yul\":5697:5714   */\n      add\n        /* \"#utility.yul\":5688:5694   */\n      dup5\n        /* \"#utility.yul\":5644:5715   */\n      tag_130\n      jump\t// in\n    tag_212:\n        /* \"#utility.yul\":5500:5722   */\n      swap3\n      swap2\n      pop\n      pop\n      jump\t// out\n        /* \"#utility.yul\":5728:5845   */\n    tag_131:\n        /* \"#utility.yul\":5837:5838   */\n      0x00\n        /* \"#utility.yul\":5834:5835   */\n      dup1\n        /* \"#utility.yul\":5827:5839   */\n      revert\n        /* \"#utility.yul\":5851:5968   */\n    tag_132:\n        /* \"#utility.yul\":5960:5961   */\n      0x00\n        /* \"#utility.yul\":5957:5958   */\n      dup1\n        /* \"#utility.yul\":5950:5962   */\n      revert\n        /* \"#utility.yul\":5974:6091   */\n    tag_133:\n        /* \"#utility.yul\":6083:6084   */\n      0x00\n        /* \"#utility.yul\":6080:6081   */\n      dup1\n        /* \"#utility.yul\":6073:6085   */\n      revert\n        /* \"#utility.yul\":6110:6662   */\n    tag_134:\n        /* \"#utility.yul\":6167:6175   */\n      0x00\n        /* \"#utility.yul\":6177:6183   */\n      dup1\n        /* \"#utility.yul\":6227:6230   */\n      dup4\n        /* \"#utility.yul\":6220:6224   */\n      0x1f\n        /* \"#utility.yul\":6212:6218   */\n      dup5\n        /* \"#utility.yul\":6208:6225   */\n      add\n        /* \"#utility.yul\":6204:6231   */\n      slt\n        /* \"#utility.yul\":6194:6316   */\n      tag_217\n      jumpi\n        /* \"#utility.yul\":6235:6314   */\n      tag_218\n      tag_131\n      jump\t// in\n    tag_218:\n        /* \"#utility.yul\":6194:6316   */\n    tag_217:\n        /* \"#utility.yul\":6348:6354   */\n      dup3\n        /* \"#utility.yul\":6335:6355   */\n      calldataload\n        /* \"#utility.yul\":6325:6355   */\n      swap1\n      pop\n        /* \"#utility.yul\":6378:6396   */\n      0xffffffffffffffff\n        /* \"#utility.yul\":6370:6376   */\n      dup2\n        /* \"#utility.yul\":6367:6397   */\n      gt\n        /* \"#utility.yul\":6364:6481   */\n      iszero\n      tag_219\n      jumpi\n        /* \"#utility.yul\":6400:6479   */\n      tag_220\n      tag_132\n      jump\t// in\n    tag_220:\n        /* \"#utility.yul\":6364:6481   */\n    tag_219:\n        /* \"#utility.yul\":6514:6518   */\n      0x20\n        /* \"#utility.yul\":6506:6512   */\n      dup4\n        /* \"#utility.yul\":6502:6519   */\n      add\n        /* \"#utility.yul\":6490:6519   */\n      swap2\n      pop\n        /* \"#utility.yul\":6568:6571   */\n      dup4\n        /* \"#utility.yul\":6560:6564   */\n      0x01\n        /* \"#utility.yul\":6552:6558   */\n      dup3\n        /* \"#utility.yul\":6548:6565   */\n      mul\n        /* \"#utility.yul\":6538:6546   */\n      dup4\n        /* \"#utility.yul\":6534:6566   */\n      add\n        /* \"#utility.yul\":6531:6572   */\n      gt\n        /* \"#utility.yul\":6528:6656   */\n      iszero\n      tag_221\n      jumpi\n        /* \"#utility.yul\":6575:6654   */\n      tag_222\n      tag_133\n      jump\t// in\n    tag_222:\n        /* \"#utility.yul\":6528:6656   */\n    tag_221:\n        /* \"#utility.yul\":6110:6662   */\n      swap3\n      pop\n      swap3\n      swap1\n      pop\n      jump\t// out\n        /* \"#utility.yul\":6668:7195   */\n    tag_58:\n        /* \"#utility.yul\":6738:6744   */\n      0x00\n        /* \"#utility.yul\":6746:6752   */\n      dup1\n        /* \"#utility.yul\":6795:6797   */\n      0x20\n        /* \"#utility.yul\":6783:6792   */\n      dup4\n        /* \"#utility.yul\":6774:6781   */\n      dup6\n        /* \"#utility.yul\":6770:6793   */\n      sub\n        /* \"#utility.yul\":6766:6798   */\n      slt\n        /* \"#utility.yul\":6763:6882   */\n      iszero\n      tag_224\n      jumpi\n        /* \"#utility.yul\":6801:6880   */\n      tag_225\n      tag_115\n      jump\t// in\n    tag_225:\n        /* \"#utility.yul\":6763:6882   */\n    tag_224:\n        /* \"#utility.yul\":6949:6950   */\n      0x00\n        /* \"#utility.yul\":6938:6947   */\n      dup4\n        /* \"#utility.yul\":6934:6951   */\n      add\n        /* \"#utility.yul\":6921:6952   */\n      calldataload\n        /* \"#utility.yul\":6979:6997   */\n      0xffffffffffffffff\n        /* \"#utility.yul\":6971:6977   */\n      dup2\n        /* \"#utility.yul\":6968:6998   */\n      gt\n        /* \"#utility.yul\":6965:7082   */\n      iszero\n      tag_226\n      jumpi\n        /* \"#utility.yul\":7001:7080   */\n      tag_227\n      tag_116\n      jump\t// in\n    tag_227:\n        /* \"#utility.yul\":6965:7082   */\n    tag_226:\n        /* \"#utility.yul\":7114:7178   */\n      tag_228\n        /* \"#utility.yul\":7170:7177   */\n      dup6\n        /* \"#utility.yul\":7161:7167   */\n      dup3\n        /* \"#utility.yul\":7150:7159   */\n      dup7\n        /* \"#utility.yul\":7146:7168   */\n      add\n        /* \"#utility.yul\":7114:7178   */\n      tag_134\n      jump\t// in\n    tag_228:\n        /* \"#utility.yul\":7096:7178   */\n      swap3\n      pop\n      swap3\n      pop\n        /* \"#utility.yul\":6892:7188   */\n      pop\n        /* \"#utility.yul\":6668:7195   */\n      swap3\n      pop\n      swap3\n      swap1\n      pop\n      jump\t// out\n        /* \"#utility.yul\":7201:7288   */\n    tag_135:\n        /* \"#utility.yul\":7248:7255   */\n      0x00\n        /* \"#utility.yul\":7277:7282   */\n      dup2\n        /* \"#utility.yul\":7266:7282   */\n      swap1\n      pop\n        /* \"#utility.yul\":7201:7288   */\n      swap2\n      swap1\n      pop\n      jump\t// out\n        /* \"#utility.yul\":7294:7380   */\n    tag_136:\n        /* \"#utility.yul\":7329:7336   */\n      0x00\n        /* \"#utility.yul\":7369:7373   */\n      0xff\n        /* \"#utility.yul\":7362:7367   */\n      dup3\n        /* \"#utility.yul\":7358:7374   */\n      and\n        /* \"#utility.yul\":7347:7374   */\n      swap1\n      pop\n        /* \"#utility.yul\":7294:7380   */\n      swap2\n      swap1\n      pop\n      jump\t// out\n        /* \"#utility.yul\":7386:7446   */\n    tag_137:\n        /* \"#utility.yul\":7414:7417   */\n      0x00\n        /* \"#utility.yul\":7435:7440   */\n      dup2\n        /* \"#utility.yul\":7428:7440   */\n      swap1\n      pop\n        /* \"#utility.yul\":7386:7446   */\n      swap2\n      swap1\n      pop\n      jump\t// out\n        /* \"#utility.yul\":7452:7610   */\n    tag_138:\n        /* \"#utility.yul\":7510:7519   */\n      0x00\n        /* \"#utility.yul\":7543:7604   */\n      tag_233\n        /* \"#utility.yul\":7559:7603   */\n      tag_234\n        /* \"#utility.yul\":7568:7602   */\n      tag_235\n        /* \"#utility.yul\":7596:7601   */\n      dup5\n        /* \"#utility.yul\":7568:7602   */\n      tag_135\n      jump\t// in\n    tag_235:\n        /* \"#utility.yul\":7559:7603   */\n      tag_137\n      jump\t// in\n    tag_234:\n        /* \"#utility.yul\":7543:7604   */\n      tag_136\n      jump\t// in\n    tag_233:\n        /* \"#utility.yul\":7530:7604   */\n      swap1\n      pop\n        /* \"#utility.yul\":7452:7610   */\n      swap2\n      swap1\n      pop\n      jump\t// out\n        /* \"#utility.yul\":7616:7763   */\n    tag_139:\n        /* \"#utility.yul\":7711:7756   */\n      tag_237\n        /* \"#utility.yul\":7750:7755   */\n      dup2\n        /* \"#utility.yul\":7711:7756   */\n      tag_138\n      jump\t// in\n    tag_237:\n        /* \"#utility.yul\":7706:7709   */\n      dup3\n        /* \"#utility.yul\":7699:7757   */\n      mstore\n        /* \"#utility.yul\":7616:7763   */\n      pop\n      pop\n      jump\t// out\n        /* \"#utility.yul\":7769:8117   */\n    tag_66:\n        /* \"#utility.yul\":7898:7902   */\n      0x00\n        /* \"#utility.yul\":7936:7938   */\n      0x40\n        /* \"#utility.yul\":7925:7934   */\n      dup3\n        /* \"#utility.yul\":7921:7939   */\n      add\n        /* \"#utility.yul\":7913:7939   */\n      swap1\n      pop\n        /* \"#utility.yul\":7949:8020   */\n      tag_239\n        /* \"#utility.yul\":8017:8018   */\n      0x00\n        /* \"#utility.yul\":8006:8015   */\n      dup4\n        /* \"#utility.yul\":8002:8019   */\n      add\n        /* \"#utility.yul\":7993:7999   */\n      dup6\n        /* \"#utility.yul\":7949:8020   */\n      tag_129\n      jump\t// in\n    tag_239:\n        /* \"#utility.yul\":8030:8110   */\n      tag_240\n        /* \"#utility.yul\":8106:8108   */\n      0x20\n        /* \"#utility.yul\":8095:8104   */\n      dup4\n        /* \"#utility.yul\":8091:8109   */\n      add\n        /* \"#utility.yul\":8082:8088   */\n      dup5\n        /* \"#utility.yul\":8030:8110   */\n      tag_139\n      jump\t// in\n    tag_240:\n        /* \"#utility.yul\":7769:8117   */\n      swap4\n      swap3\n      pop\n      pop\n      pop\n      jump\t// out\n        /* \"#utility.yul\":8123:8455   */\n    tag_71:\n        /* \"#utility.yul\":8244:8248   */\n      0x00\n        /* \"#utility.yul\":8282:8284   */\n      0x40\n        /* \"#utility.yul\":8271:8280   */\n      dup3\n        /* \"#utility.yul\":8267:8285   */\n      add\n        /* \"#utility.yul\":8259:8285   */\n      swap1\n      pop\n        /* \"#utility.yul\":8295:8366   */\n      tag_242\n        /* \"#utility.yul\":8363:8364   */\n      0x00\n        /* \"#utility.yul\":8352:8361   */\n      dup4\n        /* \"#utility.yul\":8348:8365   */\n      add\n        /* \"#utility.yul\":8339:8345   */\n      dup6\n        /* \"#utility.yul\":8295:8366   */\n      tag_129\n      jump\t// in\n    tag_242:\n        /* \"#utility.yul\":8376:8448   */\n      tag_243\n        /* \"#utility.yul\":8444:8446   */\n      0x20\n        /* \"#utility.yul\":8433:8442   */\n      dup4\n        /* \"#utility.yul\":8429:8447   */\n      add\n        /* \"#utility.yul\":8420:8426   */\n      dup5\n        /* \"#utility.yul\":8376:8448   */\n      tag_130\n      jump\t// in\n    tag_243:\n        /* \"#utility.yul\":8123:8455   */\n      swap4\n      swap3\n      pop\n      pop\n      pop\n      jump\t// out\n        /* \"#utility.yul\":8461:8608   */\n    tag_140:\n        /* \"#utility.yul\":8562:8573   */\n      0x00\n        /* \"#utility.yul\":8599:8602   */\n      dup2\n        /* \"#utility.yul\":8584:8602   */\n      swap1\n      pop\n        /* \"#utility.yul\":8461:8608   */\n      swap3\n      swap2\n      pop\n      pop\n      jump\t// out\n        /* \"#utility.yul\":8614:9000   */\n    tag_141:\n        /* \"#utility.yul\":8718:8721   */\n      0x00\n        /* \"#utility.yul\":8746:8784   */\n      tag_246\n        /* \"#utility.yul\":8778:8783   */\n      dup3\n        /* \"#utility.yul\":8746:8784   */\n      tag_107\n      jump\t// in\n    tag_246:\n        /* \"#utility.yul\":8800:8888   */\n      tag_247\n        /* \"#utility.yul\":8881:8887   */\n      dup2\n        /* \"#utility.yul\":8876:8879   */\n      dup6\n        /* \"#utility.yul\":8800:8888   */\n      tag_140\n      jump\t// in\n    tag_247:\n        /* \"#utility.yul\":8793:8888   */\n      swap4\n      pop\n        /* \"#utility.yul\":8897:8962   */\n      tag_248\n        /* \"#utility.yul\":8955:8961   */\n      dup2\n        /* \"#utility.yul\":8950:8953   */\n      dup6\n        /* \"#utility.yul\":8943:8947   */\n      0x20\n        /* \"#utility.yul\":8936:8941   */\n      dup7\n        /* \"#utility.yul\":8932:8948   */\n      add\n        /* \"#utility.yul\":8897:8962   */\n      tag_109\n      jump\t// in\n    tag_248:\n        /* \"#utility.yul\":8987:8993   */\n      dup1\n        /* \"#utility.yul\":8982:8985   */\n      dup5\n        /* \"#utility.yul\":8978:8994   */\n      add\n        /* \"#utility.yul\":8971:8994   */\n      swap2\n      pop\n        /* \"#utility.yul\":8722:9000   */\n      pop\n        /* \"#utility.yul\":8614:9000   */\n      swap3\n      swap2\n      pop\n      pop\n      jump\t// out\n        /* \"#utility.yul\":9006:9277   */\n    tag_78:\n        /* \"#utility.yul\":9136:9139   */\n      0x00\n        /* \"#utility.yul\":9158:9251   */\n      tag_250\n        /* \"#utility.yul\":9247:9250   */\n      dup3\n        /* \"#utility.yul\":9238:9244   */\n      dup5\n        /* \"#utility.yul\":9158:9251   */\n      tag_141\n      jump\t// in\n    tag_250:\n        /* \"#utility.yul\":9151:9251   */\n      swap2\n      pop\n        /* \"#utility.yul\":9268:9271   */\n      dup2\n        /* \"#utility.yul\":9261:9271   */\n      swap1\n      pop\n        /* \"#utility.yul\":9006:9277   */\n      swap3\n      swap2\n      pop\n      pop\n      jump\t// out\n        /* \"#utility.yul\":9283:9399   */\n    tag_142:\n        /* \"#utility.yul\":9334:9338   */\n      0x00\n        /* \"#utility.yul\":9357:9360   */\n      dup2\n        /* \"#utility.yul\":9349:9360   */\n      swap1\n      pop\n        /* \"#utility.yul\":9387:9391   */\n      0x20\n        /* \"#utility.yul\":9382:9385   */\n      dup3\n        /* \"#utility.yul\":9378:9392   */\n      add\n        /* \"#utility.yul\":9370:9392   */\n      swap1\n      pop\n        /* \"#utility.yul\":9283:9399   */\n      swap2\n      swap1\n      pop\n      jump\t// out\n        /* \"#utility.yul\":9405:9557   */\n    tag_143:\n        /* \"#utility.yul\":9447:9458   */\n      0x00\n        /* \"#utility.yul\":9483:9511   */\n      tag_253\n        /* \"#utility.yul\":9506:9509   */\n      dup3\n        /* \"#utility.yul\":9500:9510   */\n      mload\n        /* \"#utility.yul\":9483:9511   */\n      tag_112\n      jump\t// in\n    tag_253:\n        /* \"#utility.yul\":9545:9550   */\n      dup1\n        /* \"#utility.yul\":9521:9550   */\n      swap2\n      pop\n        /* \"#utility.yul\":9459:9557   */\n      pop\n        /* \"#utility.yul\":9405:9557   */\n      swap2\n      swap1\n      pop\n      jump\t// out\n        /* \"#utility.yul\":9563:9670   */\n    tag_144:\n        /* \"#utility.yul\":9607:9615   */\n      0x00\n        /* \"#utility.yul\":9657:9662   */\n      dup3\n        /* \"#utility.yul\":9651:9655   */\n      dup3\n        /* \"#utility.yul\":9647:9663   */\n      shl\n        /* \"#utility.yul\":9626:9663   */\n      swap1\n      pop\n        /* \"#utility.yul\":9563:9670   */\n      swap3\n      swap2\n      pop\n      pop\n      jump\t// out\n        /* \"#utility.yul\":9676:10266   */\n    tag_83:\n        /* \"#utility.yul\":9759:9764   */\n      0x00\n        /* \"#utility.yul\":9790:9828   */\n      tag_256\n        /* \"#utility.yul\":9822:9827   */\n      dup3\n        /* \"#utility.yul\":9790:9828   */\n      tag_107\n      jump\t// in\n    tag_256:\n        /* \"#utility.yul\":9853:9858   */\n      dup3\n        /* \"#utility.yul\":9880:9920   */\n      tag_257\n        /* \"#utility.yul\":9914:9919   */\n      dup5\n        /* \"#utility.yul\":9880:9920   */\n      tag_142\n      jump\t// in\n    tag_257:\n        /* \"#utility.yul\":9868:9920   */\n      swap1\n      pop\n        /* \"#utility.yul\":9939:9973   */\n      tag_258\n        /* \"#utility.yul\":9964:9972   */\n      dup2\n        /* \"#utility.yul\":9939:9973   */\n      tag_143\n      jump\t// in\n    tag_258:\n        /* \"#utility.yul\":9930:9973   */\n      swap3\n      pop\n        /* \"#utility.yul\":9997:9998   */\n      0x04\n        /* \"#utility.yul\":9989:9995   */\n      dup3\n        /* \"#utility.yul\":9986:9999   */\n      lt\n        /* \"#utility.yul\":9983:10259   */\n      iszero\n      tag_259\n      jumpi\n        /* \"#utility.yul\":10067:10235   */\n      tag_260\n        /* \"#utility.yul\":10151:10217   */\n      0xffffffff00000000000000000000000000000000000000000000000000000000\n        /* \"#utility.yul\":10121:10127   */\n      dup4\n        /* \"#utility.yul\":10118:10119   */\n      0x04\n        /* \"#utility.yul\":10114:10128   */\n      sub\n        /* \"#utility.yul\":10111:10112   */\n      0x08\n        /* \"#utility.yul\":10107:10129   */\n      mul\n        /* \"#utility.yul\":10067:10235   */\n      tag_144\n      jump\t// in\n    tag_260:\n        /* \"#utility.yul\":10044:10049   */\n      dup4\n        /* \"#utility.yul\":10023:10249   */\n      and\n        /* \"#utility.yul\":10014:10249   */\n      swap3\n      pop\n        /* \"#utility.yul\":9983:10259   */\n    tag_259:\n        /* \"#utility.yul\":9765:10266   */\n      pop\n      pop\n        /* \"#utility.yul\":9676:10266   */\n      swap2\n      swap1\n      pop\n      jump\t// out\n        /* \"#utility.yul\":10272:10452   */\n    tag_97:\n        /* \"#utility.yul\":10320:10397   */\n      0x4e487b7100000000000000000000000000000000000000000000000000000000\n        /* \"#utility.yul\":10317:10318   */\n      0x00\n        /* \"#utility.yul\":10310:10398   */\n      mstore\n        /* \"#utility.yul\":10417:10421   */\n      0x32\n        /* \"#utility.yul\":10414:10415   */\n      0x04\n        /* \"#utility.yul\":10407:10422   */\n      mstore\n        /* \"#utility.yul\":10441:10445   */\n      0x24\n        /* \"#utility.yul\":10438:10439   */\n      0x00\n        /* \"#utility.yul\":10431:10446   */\n      revert\n        /* \"#utility.yul\":10458:10607   */\n    tag_145:\n        /* \"#utility.yul\":10494:10501   */\n      0x00\n        /* \"#utility.yul\":10534:10600   */\n      0xff00000000000000000000000000000000000000000000000000000000000000\n        /* \"#utility.yul\":10527:10532   */\n      dup3\n        /* \"#utility.yul\":10523:10601   */\n      and\n        /* \"#utility.yul\":10512:10601   */\n      swap1\n      pop\n        /* \"#utility.yul\":10458:10607   */\n      swap2\n      swap1\n      pop\n      jump\t// out\n        /* \"#utility.yul\":10613:10691   */\n    tag_146:\n        /* \"#utility.yul\":10651:10658   */\n      0x00\n        /* \"#utility.yul\":10680:10685   */\n      dup2\n        /* \"#utility.yul\":10669:10685   */\n      swap1\n      pop\n        /* \"#utility.yul\":10613:10691   */\n      swap2\n      swap1\n      pop\n      jump\t// out\n        /* \"#utility.yul\":10697:10850   */\n    tag_147:\n        /* \"#utility.yul\":10800:10843   */\n      tag_265\n        /* \"#utility.yul\":10819:10842   */\n      tag_266\n        /* \"#utility.yul\":10836:10841   */\n      dup3\n        /* \"#utility.yul\":10819:10842   */\n      tag_145\n      jump\t// in\n    tag_266:\n        /* \"#utility.yul\":10800:10843   */\n      tag_146\n      jump\t// in\n    tag_265:\n        /* \"#utility.yul\":10795:10798   */\n      dup3\n        /* \"#utility.yul\":10788:10844   */\n      mstore\n        /* \"#utility.yul\":10697:10850   */\n      pop\n      pop\n      jump\t// out\n        /* \"#utility.yul\":10856:11515   */\n    tag_105:\n        /* \"#utility.yul\":11044:11047   */\n      0x00\n        /* \"#utility.yul\":11059:11132   */\n      tag_268\n        /* \"#utility.yul\":11128:11131   */\n      dup3\n        /* \"#utility.yul\":11119:11125   */\n      dup8\n        /* \"#utility.yul\":11059:11132   */\n      tag_147\n      jump\t// in\n    tag_268:\n        /* \"#utility.yul\":11157:11158   */\n      0x01\n        /* \"#utility.yul\":11152:11155   */\n      dup3\n        /* \"#utility.yul\":11148:11159   */\n      add\n        /* \"#utility.yul\":11141:11159   */\n      swap2\n      pop\n        /* \"#utility.yul\":11169:11242   */\n      tag_269\n        /* \"#utility.yul\":11238:11241   */\n      dup3\n        /* \"#utility.yul\":11229:11235   */\n      dup7\n        /* \"#utility.yul\":11169:11242   */\n      tag_147\n      jump\t// in\n    tag_269:\n        /* \"#utility.yul\":11267:11268   */\n      0x01\n        /* \"#utility.yul\":11262:11265   */\n      dup3\n        /* \"#utility.yul\":11258:11269   */\n      add\n        /* \"#utility.yul\":11251:11269   */\n      swap2\n      pop\n        /* \"#utility.yul\":11279:11352   */\n      tag_270\n        /* \"#utility.yul\":11348:11351   */\n      dup3\n        /* \"#utility.yul\":11339:11345   */\n      dup6\n        /* \"#utility.yul\":11279:11352   */\n      tag_147\n      jump\t// in\n    tag_270:\n        /* \"#utility.yul\":11377:11378   */\n      0x01\n        /* \"#utility.yul\":11372:11375   */\n      dup3\n        /* \"#utility.yul\":11368:11379   */\n      add\n        /* \"#utility.yul\":11361:11379   */\n      swap2\n      pop\n        /* \"#utility.yul\":11389:11462   */\n      tag_271\n        /* \"#utility.yul\":11458:11461   */\n      dup3\n        /* \"#utility.yul\":11449:11455   */\n      dup5\n        /* \"#utility.yul\":11389:11462   */\n      tag_147\n      jump\t// in\n    tag_271:\n        /* \"#utility.yul\":11487:11488   */\n      0x01\n        /* \"#utility.yul\":11482:11485   */\n      dup3\n        /* \"#utility.yul\":11478:11489   */\n      add\n        /* \"#utility.yul\":11471:11489   */\n      swap2\n      pop\n        /* \"#utility.yul\":11506:11509   */\n      dup2\n        /* \"#utility.yul\":11499:11509   */\n      swap1\n      pop\n        /* \"#utility.yul\":10856:11515   */\n      swap6\n      swap5\n      pop\n      pop\n      pop\n      pop\n      pop\n      jump\t// out\n\n    auxdata: 0xa264697066735822122000ad3eb86ad6fbdbdecaf505af85a253b21c85fe21f53637d848ad89746332c164736f6c63430008140033\n}\n",
				"bytecode": {
					"linkReferences": {},
					"object": "608060405234801561000f575f80fd5b50610dd68061001d5f395ff3fe608060405234801561000f575f80fd5b50600436106100b2575f3560e01c8063a9059cbb1161006f578063a9059cbb1461018f578063aad229d5146101ab578063b20d9446146101c9578063c6e93bad146101fa578063ce6eb7ff14610218578063fbf6d51514610248576100b2565b80630bf9aa4c146100b657806325435a56146100d45780637c0c5f23146100f2578063852d52fa146101225780639a41d3ad14610140578063a5694e4a1461015e575b5f80fd5b6100be610266565b6040516100cb9190610865565b60405180910390f35b6100dc6102fe565b6040516100e991906108bf565b60405180910390f35b61010c6004803603810190610107919061096d565b61030c565b6040516101199190610865565b60405180910390f35b61012a61038e565b60405161013791906109fd565b60405180910390f35b6101486103cb565b60405161015591906108bf565b60405180910390f35b6101786004803603810190610173919061096d565b61040e565b604051610186929190610a37565b60405180910390f35b6101a960048036038101906101a4919061096d565b610509565b005b6101b3610553565b6040516101c09190610a6d565b60405180910390f35b6101e360048036038101906101de919061096d565b610576565b6040516101f1929190610a37565b60405180910390f35b610202610689565b60405161020f9190610a95565b60405180910390f35b610232600480360381019061022d9190610b0f565b61068f565b60405161023f91906108bf565b60405180910390f35b61025061069a565b60405161025d91906108bf565b60405180910390f35b606030607b60405160240161027c929190610ba8565b6040516020818303038152906040527fa9059cbb000000000000000000000000000000000000000000000000000000007bffffffffffffffffffffffffffffffffffffffffffffffffffffffff19166020820180517bffffffffffffffffffffffffffffffffffffffffffffffffffffffff8381831617835250505050905090565b5f63a9059cbb60e01b905090565b60606103166103cb565b8383604051602401610329929190610bcf565b604051602081830303815290604052907bffffffffffffffffffffffffffffffffffffffffffffffffffffffff19166020820180517bffffffffffffffffffffffffffffffffffffffffffffffffffffffff8381831617835250505050905092915050565b60606040518060400160405280601981526020017f7472616e7366657228616464726573732c75696e743235362900000000000000815250905090565b5f6040518060400160405280601981526020017f7472616e7366657228616464726573732c75696e74323536290000000000000081525080519060200120905090565b5f805f803073ffffffffffffffffffffffffffffffffffffffff166104316103cb565b8787604051602401610444929190610bcf565b604051602081830303815290604052907bffffffffffffffffffffffffffffffffffffffffffffffffffffffff19166020820180517bffffffffffffffffffffffffffffffffffffffffffffffffffffffff83818316178352505050506040516104ae9190610c30565b5f604051808303815f865af19150503d805f81146104e7576040519150601f19603f3d011682016040523d82523d5f602084013e6104ec565b606091505b5091509150806104fb90610c75565b829350935050509250929050565b815f806101000a81548173ffffffffffffffffffffffffffffffffffffffff021916908373ffffffffffffffffffffffffffffffffffffffff160217905550806001819055505050565b5f8054906101000a900473ffffffffffffffffffffffffffffffffffffffff1681565b5f805f803073ffffffffffffffffffffffffffffffffffffffff1686866040516024016105a4929190610bcf565b6040516020818303038152906040527fa9059cbb000000000000000000000000000000000000000000000000000000007bffffffffffffffffffffffffffffffffffffffffffffffffffffffff19166020820180517bffffffffffffffffffffffffffffffffffffffffffffffffffffffff838183161783525050505060405161062e9190610c30565b5f604051808303815f865af19150503d805f8114610667576040519150601f19603f3d011682016040523d82523d5f602084013e61066c565b606091505b50915091508061067b90610c75565b829350935050509250929050565b60015481565b5f8235905092915050565b5f8030607b6040516024016106b0929190610ba8565b6040516020818303038152906040527fa9059cbb000000000000000000000000000000000000000000000000000000007bffffffffffffffffffffffffffffffffffffffffffffffffffffffff19166020820180517bffffffffffffffffffffffffffffffffffffffffffffffffffffffff83818316178352505050509050805f8151811061074257610741610cdb565b5b602001015160f81c60f81b8160018151811061076157610760610cdb565b5b602001015160f81c60f81b826002815181106107805761077f610cdb565b5b602001015160f81c60f81b8360038151811061079f5761079e610cdb565b5b602001015160f81c60f81b6040516020016107bd9493929190610d53565b6040516020818303038152906040526107d590610c75565b91505090565b5f81519050919050565b5f82825260208201905092915050565b5f5b838110156108125780820151818401526020810190506107f7565b5f8484015250505050565b5f601f19601f8301169050919050565b5f610837826107db565b61084181856107e5565b93506108518185602086016107f5565b61085a8161081d565b840191505092915050565b5f6020820190508181035f83015261087d818461082d565b905092915050565b5f7fffffffff0000000000000000000000000000000000000000000000000000000082169050919050565b6108b981610885565b82525050565b5f6020820190506108d25f8301846108b0565b92915050565b5f80fd5b5f80fd5b5f73ffffffffffffffffffffffffffffffffffffffff82169050919050565b5f610909826108e0565b9050919050565b610919816108ff565b8114610923575f80fd5b50565b5f8135905061093481610910565b92915050565b5f819050919050565b61094c8161093a565b8114610956575f80fd5b50565b5f8135905061096781610943565b92915050565b5f8060408385031215610983576109826108d8565b5b5f61099085828601610926565b92505060206109a185828601610959565b9150509250929050565b5f81519050919050565b5f82825260208201905092915050565b5f6109cf826109ab565b6109d981856109b5565b93506109e98185602086016107f5565b6109f28161081d565b840191505092915050565b5f6020820190508181035f830152610a1581846109c5565b905092915050565b5f8115159050919050565b610a3181610a1d565b82525050565b5f604082019050610a4a5f8301856108b0565b610a576020830184610a28565b9392505050565b610a67816108ff565b82525050565b5f602082019050610a805f830184610a5e565b92915050565b610a8f8161093a565b82525050565b5f602082019050610aa85f830184610a86565b92915050565b5f80fd5b5f80fd5b5f80fd5b5f8083601f840112610acf57610ace610aae565b5b8235905067ffffffffffffffff811115610aec57610aeb610ab2565b5b602083019150836001820283011115610b0857610b07610ab6565b5b9250929050565b5f8060208385031215610b2557610b246108d8565b5b5f83013567ffffffffffffffff811115610b4257610b416108dc565b5b610b4e85828601610aba565b92509250509250929050565b5f819050919050565b5f60ff82169050919050565b5f819050919050565b5f610b92610b8d610b8884610b5a565b610b6f565b610b63565b9050919050565b610ba281610b78565b82525050565b5f604082019050610bbb5f830185610a5e565b610bc86020830184610b99565b9392505050565b5f604082019050610be25f830185610a5e565b610bef6020830184610a86565b9392505050565b5f81905092915050565b5f610c0a826107db565b610c148185610bf6565b9350610c248185602086016107f5565b80840191505092915050565b5f610c3b8284610c00565b915081905092915050565b5f819050602082019050919050565b5f610c608251610885565b80915050919050565b5f82821b905092915050565b5f610c7f826107db565b82610c8984610c46565b9050610c9481610c55565b92506004821015610cd457610ccf7fffffffff0000000000000000000000000000000000000000000000000000000083600403600802610c69565b831692505b5050919050565b7f4e487b71000000000000000000000000000000000000000000000000000000005f52603260045260245ffd5b5f7fff0000000000000000000000000000000000000000000000000000000000000082169050919050565b5f819050919050565b610d4d610d4882610d08565b610d33565b82525050565b5f610d5e8287610d3c565b600182019150610d6e8286610d3c565b600182019150610d7e8285610d3c565b600182019150610d8e8284610d3c565b6001820191508190509594505050505056fea264697066735822122000ad3eb86ad6fbdbdecaf505af85a253b21c85fe21f53637d848ad89746332c164736f6c63430008140033",
					"opcodes": "PUSH1 0x80 PUSH1 0x40 MSTORE CALLVALUE DUP1 ISZERO PUSH2 0xF JUMPI PUSH0 DUP1 REVERT JUMPDEST POP PUSH2 0xDD6 DUP1 PUSH2 0x1D PUSH0 CODECOPY PUSH0 RETURN INVALID PUSH1 0x80 PUSH1 0x40 MSTORE CALLVALUE DUP1 ISZERO PUSH2 0xF JUMPI PUSH0 DUP1 REVERT JUMPDEST POP PUSH1 0x4 CALLDATASIZE LT PUSH2 0xB2 JUMPI PUSH0 CALLDATALOAD PUSH1 0xE0 SHR DUP1 PUSH4 0xA9059CBB GT PUSH2 0x6F JUMPI DUP1 PUSH4 0xA9059CBB EQ PUSH2 0x18F JUMPI DUP1 PUSH4 0xAAD229D5 EQ PUSH2 0x1AB JUMPI DUP1 PUSH4 0xB20D9446 EQ PUSH2 0x1C9 JUMPI DUP1 PUSH4 0xC6E93BAD EQ PUSH2 0x1FA JUMPI DUP1 PUSH4 0xCE6EB7FF EQ PUSH2 0x218 JUMPI DUP1 PUSH4 0xFBF6D515 EQ PUSH2 0x248 JUMPI PUSH2 0xB2 JUMP JUMPDEST DUP1 PUSH4 0xBF9AA4C EQ PUSH2 0xB6 JUMPI DUP1 PUSH4 0x25435A56 EQ PUSH2 0xD4 JUMPI DUP1 PUSH4 0x7C0C5F23 EQ PUSH2 0xF2 JUMPI DUP1 PUSH4 0x852D52FA EQ PUSH2 0x122 JUMPI DUP1 PUSH4 0x9A41D3AD EQ PUSH2 0x140 JUMPI DUP1 PUSH4 0xA5694E4A EQ PUSH2 0x15E JUMPI JUMPDEST PUSH0 DUP1 REVERT JUMPDEST PUSH2 0xBE PUSH2 0x266 JUMP JUMPDEST PUSH1 0x40 MLOAD PUSH2 0xCB SWAP2 SWAP1 PUSH2 0x865 JUMP JUMPDEST PUSH1 0x40 MLOAD DUP1 SWAP2 SUB SWAP1 RETURN JUMPDEST PUSH2 0xDC PUSH2 0x2FE JUMP JUMPDEST PUSH1 0x40 MLOAD PUSH2 0xE9 SWAP2 SWAP1 PUSH2 0x8BF JUMP JUMPDEST PUSH1 0x40 MLOAD DUP1 SWAP2 SUB SWAP1 RETURN JUMPDEST PUSH2 0x10C PUSH1 0x4 DUP1 CALLDATASIZE SUB DUP2 ADD SWAP1 PUSH2 0x107 SWAP2 SWAP1 PUSH2 0x96D JUMP JUMPDEST PUSH2 0x30C JUMP JUMPDEST PUSH1 0x40 MLOAD PUSH2 0x119 SWAP2 SWAP1 PUSH2 0x865 JUMP JUMPDEST PUSH1 0x40 MLOAD DUP1 SWAP2 SUB SWAP1 RETURN JUMPDEST PUSH2 0x12A PUSH2 0x38E JUMP JUMPDEST PUSH1 0x40 MLOAD PUSH2 0x137 SWAP2 SWAP1 PUSH2 0x9FD JUMP JUMPDEST PUSH1 0x40 MLOAD DUP1 SWAP2 SUB SWAP1 RETURN JUMPDEST PUSH2 0x148 PUSH2 0x3CB JUMP JUMPDEST PUSH1 0x40 MLOAD PUSH2 0x155 SWAP2 SWAP1 PUSH2 0x8BF JUMP JUMPDEST PUSH1 0x40 MLOAD DUP1 SWAP2 SUB SWAP1 RETURN JUMPDEST PUSH2 0x178 PUSH1 0x4 DUP1 CALLDATASIZE SUB DUP2 ADD SWAP1 PUSH2 0x173 SWAP2 SWAP1 PUSH2 0x96D JUMP JUMPDEST PUSH2 0x40E JUMP JUMPDEST PUSH1 0x40 MLOAD PUSH2 0x186 SWAP3 SWAP2 SWAP1 PUSH2 0xA37 JUMP JUMPDEST PUSH1 0x40 MLOAD DUP1 SWAP2 SUB SWAP1 RETURN JUMPDEST PUSH2 0x1A9 PUSH1 0x4 DUP1 CALLDATASIZE SUB DUP2 ADD SWAP1 PUSH2 0x1A4 SWAP2 SWAP1 PUSH2 0x96D JUMP JUMPDEST PUSH2 0x509 JUMP JUMPDEST STOP JUMPDEST PUSH2 0x1B3 PUSH2 0x553 JUMP JUMPDEST PUSH1 0x40 MLOAD PUSH2 0x1C0 SWAP2 SWAP1 PUSH2 0xA6D JUMP JUMPDEST PUSH1 0x40 MLOAD DUP1 SWAP2 SUB SWAP1 RETURN JUMPDEST PUSH2 0x1E3 PUSH1 0x4 DUP1 CALLDATASIZE SUB DUP2 ADD SWAP1 PUSH2 0x1DE SWAP2 SWAP1 PUSH2 0x96D JUMP JUMPDEST PUSH2 0x576 JUMP JUMPDEST PUSH1 0x40 MLOAD PUSH2 0x1F1 SWAP3 SWAP2 SWAP1 PUSH2 0xA37 JUMP JUMPDEST PUSH1 0x40 MLOAD DUP1 SWAP2 SUB SWAP1 RETURN JUMPDEST PUSH2 0x202 PUSH2 0x689 JUMP JUMPDEST PUSH1 0x40 MLOAD PUSH2 0x20F SWAP2 SWAP1 PUSH2 0xA95 JUMP JUMPDEST PUSH1 0x40 MLOAD DUP1 SWAP2 SUB SWAP1 RETURN JUMPDEST PUSH2 0x232 PUSH1 0x4 DUP1 CALLDATASIZE SUB DUP2 ADD SWAP1 PUSH2 0x22D SWAP2 SWAP1 PUSH2 0xB0F JUMP JUMPDEST PUSH2 0x68F JUMP JUMPDEST PUSH1 0x40 MLOAD PUSH2 0x23F SWAP2 SWAP1 PUSH2 0x8BF JUMP JUMPDEST PUSH1 0x40 MLOAD DUP1 SWAP2 SUB SWAP1 RETURN JUMPDEST PUSH2 0x250 PUSH2 0x69A JUMP JUMPDEST PUSH1 0x40 MLOAD PUSH2 0x25D SWAP2 SWAP1 PUSH2 0x8BF JUMP JUMPDEST PUSH1 0x40 MLOAD DUP1 SWAP2 SUB SWAP1 RETURN JUMPDEST PUSH1 0x60 ADDRESS PUSH1 0x7B PUSH1 0x40 MLOAD PUSH1 0x24 ADD PUSH2 0x27C SWAP3 SWAP2 SWAP1 PUSH2 0xBA8 JUMP JUMPDEST PUSH1 0x40 MLOAD PUSH1 0x20 DUP2 DUP4 SUB SUB DUP2 MSTORE SWAP1 PUSH1 0x40 MSTORE PUSH32 0xA9059CBB00000000000000000000000000000000000000000000000000000000 PUSH28 0xFFFFFFFFFFFFFFFFFFFFFFFFFFFFFFFFFFFFFFFFFFFFFFFFFFFFFFFF NOT AND PUSH1 0x20 DUP3 ADD DUP1 MLOAD PUSH28 0xFFFFFFFFFFFFFFFFFFFFFFFFFFFFFFFFFFFFFFFFFFFFFFFFFFFFFFFF DUP4 DUP2 DUP4 AND OR DUP4 MSTORE POP POP POP POP SWAP1 POP SWAP1 JUMP JUMPDEST PUSH0 PUSH4 0xA9059CBB PUSH1 0xE0 SHL SWAP1 POP SWAP1 JUMP JUMPDEST PUSH1 0x60 PUSH2 0x316 PUSH2 0x3CB JUMP JUMPDEST DUP4 DUP4 PUSH1 0x40 MLOAD PUSH1 0x24 ADD PUSH2 0x329 SWAP3 SWAP2 SWAP1 PUSH2 0xBCF JUMP JUMPDEST PUSH1 0x40 MLOAD PUSH1 0x20 DUP2 DUP4 SUB SUB DUP2 MSTORE SWAP1 PUSH1 0x40 MSTORE SWAP1 PUSH28 0xFFFFFFFFFFFFFFFFFFFFFFFFFFFFFFFFFFFFFFFFFFFFFFFFFFFFFFFF NOT AND PUSH1 0x20 DUP3 ADD DUP1 MLOAD PUSH28 0xFFFFFFFFFFFFFFFFFFFFFFFFFFFFFFFFFFFFFFFFFFFFFFFFFFFFFFFF DUP4 DUP2 DUP4 AND OR DUP4 MSTORE POP POP POP POP SWAP1 POP SWAP3 SWAP2 POP POP JUMP JUMPDEST PUSH1 0x60 PUSH1 0x40 MLOAD DUP1 PUSH1 0x40 ADD PUSH1 0x40 MSTORE DUP1 PUSH1 0x19 DUP2 MSTORE PUSH1 0x20 ADD PUSH32 0x7472616E7366657228616464726573732C75696E743235362900000000000000 DUP2 MSTORE POP SWAP1 POP SWAP1 JUMP JUMPDEST PUSH0 PUSH1 0x40 MLOAD DUP1 PUSH1 0x40 ADD PUSH1 0x40 MSTORE DUP1 PUSH1 0x19 DUP2 MSTORE PUSH1 0x20 ADD PUSH32 0x7472616E7366657228616464726573732C75696E743235362900000000000000 DUP2 MSTORE POP DUP1 MLOAD SWAP1 PUSH1 0x20 ADD KECCAK256 SWAP1 POP SWAP1 JUMP JUMPDEST PUSH0 DUP1 PUSH0 DUP1 ADDRESS PUSH20 0xFFFFFFFFFFFFFFFFFFFFFFFFFFFFFFFFFFFFFFFF AND PUSH2 0x431 PUSH2 0x3CB JUMP JUMPDEST DUP8 DUP8 PUSH1 0x40 MLOAD PUSH1 0x24 ADD PUSH2 0x444 SWAP3 SWAP2 SWAP1 PUSH2 0xBCF JUMP JUMPDEST PUSH1 0x40 MLOAD PUSH1 0x20 DUP2 DUP4 SUB SUB DUP2 MSTORE SWAP1 PUSH1 0x40 MSTORE SWAP1 PUSH28 0xFFFFFFFFFFFFFFFFFFFFFFFFFFFFFFFFFFFFFFFFFFFFFFFFFFFFFFFF NOT AND PUSH1 0x20 DUP3 ADD DUP1 MLOAD PUSH28 0xFFFFFFFFFFFFFFFFFFFFFFFFFFFFFFFFFFFFFFFFFFFFFFFFFFFFFFFF DUP4 DUP2 DUP4 AND OR DUP4 MSTORE POP POP POP POP PUSH1 0x40 MLOAD PUSH2 0x4AE SWAP2 SWAP1 PUSH2 0xC30 JUMP JUMPDEST PUSH0 PUSH1 0x40 MLOAD DUP1 DUP4 SUB DUP2 PUSH0 DUP7 GAS CALL SWAP2 POP POP RETURNDATASIZE DUP1 PUSH0 DUP2 EQ PUSH2 0x4E7 JUMPI PUSH1 0x40 MLOAD SWAP2 POP PUSH1 0x1F NOT PUSH1 0x3F RETURNDATASIZE ADD AND DUP3 ADD PUSH1 0x40 MSTORE RETURNDATASIZE DUP3 MSTORE RETURNDATASIZE PUSH0 PUSH1 0x20 DUP5 ADD RETURNDATACOPY PUSH2 0x4EC JUMP JUMPDEST PUSH1 0x60 SWAP2 POP JUMPDEST POP SWAP2 POP SWAP2 POP DUP1 PUSH2 0x4FB SWAP1 PUSH2 0xC75 JUMP JUMPDEST DUP3 SWAP4 POP SWAP4 POP POP POP SWAP3 POP SWAP3 SWAP1 POP JUMP JUMPDEST DUP2 PUSH0 DUP1 PUSH2 0x100 EXP DUP2 SLOAD DUP2 PUSH20 0xFFFFFFFFFFFFFFFFFFFFFFFFFFFFFFFFFFFFFFFF MUL NOT AND SWAP1 DUP4 PUSH20 0xFFFFFFFFFFFFFFFFFFFFFFFFFFFFFFFFFFFFFFFF AND MUL OR SWAP1 SSTORE POP DUP1 PUSH1 0x1 DUP2 SWAP1 SSTORE POP POP POP JUMP JUMPDEST PUSH0 DUP1 SLOAD SWAP1 PUSH2 0x100 EXP SWAP1 DIV PUSH20 0xFFFFFFFFFFFFFFFFFFFFFFFFFFFFFFFFFFFFFFFF AND DUP2 JUMP JUMPDEST PUSH0 DUP1 PUSH0 DUP1 ADDRESS PUSH20 0xFFFFFFFFFFFFFFFFFFFFFFFFFFFFFFFFFFFFFFFF AND DUP7 DUP7 PUSH1 0x40 MLOAD PUSH1 0x24 ADD PUSH2 0x5A4 SWAP3 SWAP2 SWAP1 PUSH2 0xBCF JUMP JUMPDEST PUSH1 0x40 MLOAD PUSH1 0x20 DUP2 DUP4 SUB SUB DUP2 MSTORE SWAP1 PUSH1 0x40 MSTORE PUSH32 0xA9059CBB00000000000000000000000000000000000000000000000000000000 PUSH28 0xFFFFFFFFFFFFFFFFFFFFFFFFFFFFFFFFFFFFFFFFFFFFFFFFFFFFFFFF NOT AND PUSH1 0x20 DUP3 ADD DUP1 MLOAD PUSH28 0xFFFFFFFFFFFFFFFFFFFFFFFFFFFFFFFFFFFFFFFFFFFFFFFFFFFFFFFF DUP4 DUP2 DUP4 AND OR DUP4 MSTORE POP POP POP POP PUSH1 0x40 MLOAD PUSH2 0x62E SWAP2 SWAP1 PUSH2 0xC30 JUMP JUMPDEST PUSH0 PUSH1 0x40 MLOAD DUP1 DUP4 SUB DUP2 PUSH0 DUP7 GAS CALL SWAP2 POP POP RETURNDATASIZE DUP1 PUSH0 DUP2 EQ PUSH2 0x667 JUMPI PUSH1 0x40 MLOAD SWAP2 POP PUSH1 0x1F NOT PUSH1 0x3F RETURNDATASIZE ADD AND DUP3 ADD PUSH1 0x40 MSTORE RETURNDATASIZE DUP3 MSTORE RETURNDATASIZE PUSH0 PUSH1 0x20 DUP5 ADD RETURNDATACOPY PUSH2 0x66C JUMP JUMPDEST PUSH1 0x60 SWAP2 POP JUMPDEST POP SWAP2 POP SWAP2 POP DUP1 PUSH2 0x67B SWAP1 PUSH2 0xC75 JUMP JUMPDEST DUP3 SWAP4 POP SWAP4 POP POP POP SWAP3 POP SWAP3 SWAP1 POP JUMP JUMPDEST PUSH1 0x1 SLOAD DUP2 JUMP JUMPDEST PUSH0 DUP3 CALLDATALOAD SWAP1 POP SWAP3 SWAP2 POP POP JUMP JUMPDEST PUSH0 DUP1 ADDRESS PUSH1 0x7B PUSH1 0x40 MLOAD PUSH1 0x24 ADD PUSH2 0x6B0 SWAP3 SWAP2 SWAP1 PUSH2 0xBA8 JUMP JUMPDEST PUSH1 0x40 MLOAD PUSH1 0x20 DUP2 DUP4 SUB SUB DUP2 MSTORE SWAP1 PUSH1 0x40 MSTORE PUSH32 0xA9059CBB00000000000000000000000000000000000000000000000000000000 PUSH28 0xFFFFFFFFFFFFFFFFFFFFFFFFFFFFFFFFFFFFFFFFFFFFFFFFFFFFFFFF NOT AND PUSH1 0x20 DUP3 ADD DUP1 MLOAD PUSH28 0xFFFFFFFFFFFFFFFFFFFFFFFFFFFFFFFFFFFFFFFFFFFFFFFFFFFFFFFF DUP4 DUP2 DUP4 AND OR DUP4 MSTORE POP POP POP POP SWAP1 POP DUP1 PUSH0 DUP2 MLOAD DUP2 LT PUSH2 0x742 JUMPI PUSH2 0x741 PUSH2 0xCDB JUMP JUMPDEST JUMPDEST PUSH1 0x20 ADD ADD MLOAD PUSH1 0xF8 SHR PUSH1 0xF8 SHL DUP2 PUSH1 0x1 DUP2 MLOAD DUP2 LT PUSH2 0x761 JUMPI PUSH2 0x760 PUSH2 0xCDB JUMP JUMPDEST JUMPDEST PUSH1 0x20 ADD ADD MLOAD PUSH1 0xF8 SHR PUSH1 0xF8 SHL DUP3 PUSH1 0x2 DUP2 MLOAD DUP2 LT PUSH2 0x780 JUMPI PUSH2 0x77F PUSH2 0xCDB JUMP JUMPDEST JUMPDEST PUSH1 0x20 ADD ADD MLOAD PUSH1 0xF8 SHR PUSH1 0xF8 SHL DUP4 PUSH1 0x3 DUP2 MLOAD DUP2 LT PUSH2 0x79F JUMPI PUSH2 0x79E PUSH2 0xCDB JUMP JUMPDEST JUMPDEST PUSH1 0x20 ADD ADD MLOAD PUSH1 0xF8 SHR PUSH1 0xF8 SHL PUSH1 0x40 MLOAD PUSH1 0x20 ADD PUSH2 0x7BD SWAP5 SWAP4 SWAP3 SWAP2 SWAP1 PUSH2 0xD53 JUMP JUMPDEST PUSH1 0x40 MLOAD PUSH1 0x20 DUP2 DUP4 SUB SUB DUP2 MSTORE SWAP1 PUSH1 0x40 MSTORE PUSH2 0x7D5 SWAP1 PUSH2 0xC75 JUMP JUMPDEST SWAP2 POP POP SWAP1 JUMP JUMPDEST PUSH0 DUP2 MLOAD SWAP1 POP SWAP2 SWAP1 POP JUMP JUMPDEST PUSH0 DUP3 DUP3 MSTORE PUSH1 0x20 DUP3 ADD SWAP1 POP SWAP3 SWAP2 POP POP JUMP JUMPDEST PUSH0 JUMPDEST DUP4 DUP2 LT ISZERO PUSH2 0x812 JUMPI DUP1 DUP3 ADD MLOAD DUP2 DUP5 ADD MSTORE PUSH1 0x20 DUP2 ADD SWAP1 POP PUSH2 0x7F7 JUMP JUMPDEST PUSH0 DUP5 DUP5 ADD MSTORE POP POP POP POP JUMP JUMPDEST PUSH0 PUSH1 0x1F NOT PUSH1 0x1F DUP4 ADD AND SWAP1 POP SWAP2 SWAP1 POP JUMP JUMPDEST PUSH0 PUSH2 0x837 DUP3 PUSH2 0x7DB JUMP JUMPDEST PUSH2 0x841 DUP2 DUP6 PUSH2 0x7E5 JUMP JUMPDEST SWAP4 POP PUSH2 0x851 DUP2 DUP6 PUSH1 0x20 DUP7 ADD PUSH2 0x7F5 JUMP JUMPDEST PUSH2 0x85A DUP2 PUSH2 0x81D JUMP JUMPDEST DUP5 ADD SWAP2 POP POP SWAP3 SWAP2 POP POP JUMP JUMPDEST PUSH0 PUSH1 0x20 DUP3 ADD SWAP1 POP DUP2 DUP2 SUB PUSH0 DUP4 ADD MSTORE PUSH2 0x87D DUP2 DUP5 PUSH2 0x82D JUMP JUMPDEST SWAP1 POP SWAP3 SWAP2 POP POP JUMP JUMPDEST PUSH0 PUSH32 0xFFFFFFFF00000000000000000000000000000000000000000000000000000000 DUP3 AND SWAP1 POP SWAP2 SWAP1 POP JUMP JUMPDEST PUSH2 0x8B9 DUP2 PUSH2 0x885 JUMP JUMPDEST DUP3 MSTORE POP POP JUMP JUMPDEST PUSH0 PUSH1 0x20 DUP3 ADD SWAP1 POP PUSH2 0x8D2 PUSH0 DUP4 ADD DUP5 PUSH2 0x8B0 JUMP JUMPDEST SWAP3 SWAP2 POP POP JUMP JUMPDEST PUSH0 DUP1 REVERT JUMPDEST PUSH0 DUP1 REVERT JUMPDEST PUSH0 PUSH20 0xFFFFFFFFFFFFFFFFFFFFFFFFFFFFFFFFFFFFFFFF DUP3 AND SWAP1 POP SWAP2 SWAP1 POP JUMP JUMPDEST PUSH0 PUSH2 0x909 DUP3 PUSH2 0x8E0 JUMP JUMPDEST SWAP1 POP SWAP2 SWAP1 POP JUMP JUMPDEST PUSH2 0x919 DUP2 PUSH2 0x8FF JUMP JUMPDEST DUP2 EQ PUSH2 0x923 JUMPI PUSH0 DUP1 REVERT JUMPDEST POP JUMP JUMPDEST PUSH0 DUP2 CALLDATALOAD SWAP1 POP PUSH2 0x934 DUP2 PUSH2 0x910 JUMP JUMPDEST SWAP3 SWAP2 POP POP JUMP JUMPDEST PUSH0 DUP2 SWAP1 POP SWAP2 SWAP1 POP JUMP JUMPDEST PUSH2 0x94C DUP2 PUSH2 0x93A JUMP JUMPDEST DUP2 EQ PUSH2 0x956 JUMPI PUSH0 DUP1 REVERT JUMPDEST POP JUMP JUMPDEST PUSH0 DUP2 CALLDATALOAD SWAP1 POP PUSH2 0x967 DUP2 PUSH2 0x943 JUMP JUMPDEST SWAP3 SWAP2 POP POP JUMP JUMPDEST PUSH0 DUP1 PUSH1 0x40 DUP4 DUP6 SUB SLT ISZERO PUSH2 0x983 JUMPI PUSH2 0x982 PUSH2 0x8D8 JUMP JUMPDEST JUMPDEST PUSH0 PUSH2 0x990 DUP6 DUP3 DUP7 ADD PUSH2 0x926 JUMP JUMPDEST SWAP3 POP POP PUSH1 0x20 PUSH2 0x9A1 DUP6 DUP3 DUP7 ADD PUSH2 0x959 JUMP JUMPDEST SWAP2 POP POP SWAP3 POP SWAP3 SWAP1 POP JUMP JUMPDEST PUSH0 DUP2 MLOAD SWAP1 POP SWAP2 SWAP1 POP JUMP JUMPDEST PUSH0 DUP3 DUP3 MSTORE PUSH1 0x20 DUP3 ADD SWAP1 POP SWAP3 SWAP2 POP POP JUMP JUMPDEST PUSH0 PUSH2 0x9CF DUP3 PUSH2 0x9AB JUMP JUMPDEST PUSH2 0x9D9 DUP2 DUP6 PUSH2 0x9B5 JUMP JUMPDEST SWAP4 POP PUSH2 0x9E9 DUP2 DUP6 PUSH1 0x20 DUP7 ADD PUSH2 0x7F5 JUMP JUMPDEST PUSH2 0x9F2 DUP2 PUSH2 0x81D JUMP JUMPDEST DUP5 ADD SWAP2 POP POP SWAP3 SWAP2 POP POP JUMP JUMPDEST PUSH0 PUSH1 0x20 DUP3 ADD SWAP1 POP DUP2 DUP2 SUB PUSH0 DUP4 ADD MSTORE PUSH2 0xA15 DUP2 DUP5 PUSH2 0x9C5 JUMP JUMPDEST SWAP1 POP SWAP3 SWAP2 POP POP JUMP JUMPDEST PUSH0 DUP2 ISZERO ISZERO SWAP1 POP SWAP2 SWAP1 POP JUMP JUMPDEST PUSH2 0xA31 DUP2 PUSH2 0xA1D JUMP JUMPDEST DUP3 MSTORE POP POP JUMP JUMPDEST PUSH0 PUSH1 0x40 DUP3 ADD SWAP1 POP PUSH2 0xA4A PUSH0 DUP4 ADD DUP6 PUSH2 0x8B0 JUMP JUMPDEST PUSH2 0xA57 PUSH1 0x20 DUP4 ADD DUP5 PUSH2 0xA28 JUMP JUMPDEST SWAP4 SWAP3 POP POP POP JUMP JUMPDEST PUSH2 0xA67 DUP2 PUSH2 0x8FF JUMP JUMPDEST DUP3 MSTORE POP POP JUMP JUMPDEST PUSH0 PUSH1 0x20 DUP3 ADD SWAP1 POP PUSH2 0xA80 PUSH0 DUP4 ADD DUP5 PUSH2 0xA5E JUMP JUMPDEST SWAP3 SWAP2 POP POP JUMP JUMPDEST PUSH2 0xA8F DUP2 PUSH2 0x93A JUMP JUMPDEST DUP3 MSTORE POP POP JUMP JUMPDEST PUSH0 PUSH1 0x20 DUP3 ADD SWAP1 POP PUSH2 0xAA8 PUSH0 DUP4 ADD DUP5 PUSH2 0xA86 JUMP JUMPDEST SWAP3 SWAP2 POP POP JUMP JUMPDEST PUSH0 DUP1 REVERT JUMPDEST PUSH0 DUP1 REVERT JUMPDEST PUSH0 DUP1 REVERT JUMPDEST PUSH0 DUP1 DUP4 PUSH1 0x1F DUP5 ADD SLT PUSH2 0xACF JUMPI PUSH2 0xACE PUSH2 0xAAE JUMP JUMPDEST JUMPDEST DUP3 CALLDATALOAD SWAP1 POP PUSH8 0xFFFFFFFFFFFFFFFF DUP2 GT ISZERO PUSH2 0xAEC JUMPI PUSH2 0xAEB PUSH2 0xAB2 JUMP JUMPDEST JUMPDEST PUSH1 0x20 DUP4 ADD SWAP2 POP DUP4 PUSH1 0x1 DUP3 MUL DUP4 ADD GT ISZERO PUSH2 0xB08 JUMPI PUSH2 0xB07 PUSH2 0xAB6 JUMP JUMPDEST JUMPDEST SWAP3 POP SWAP3 SWAP1 POP JUMP JUMPDEST PUSH0 DUP1 PUSH1 0x20 DUP4 DUP6 SUB SLT ISZERO PUSH2 0xB25 JUMPI PUSH2 0xB24 PUSH2 0x8D8 JUMP JUMPDEST JUMPDEST PUSH0 DUP4 ADD CALLDATALOAD PUSH8 0xFFFFFFFFFFFFFFFF DUP2 GT ISZERO PUSH2 0xB42 JUMPI PUSH2 0xB41 PUSH2 0x8DC JUMP JUMPDEST JUMPDEST PUSH2 0xB4E DUP6 DUP3 DUP7 ADD PUSH2 0xABA JUMP JUMPDEST SWAP3 POP SWAP3 POP POP SWAP3 POP SWAP3 SWAP1 POP JUMP JUMPDEST PUSH0 DUP2 SWAP1 POP SWAP2 SWAP1 POP JUMP JUMPDEST PUSH0 PUSH1 0xFF DUP3 AND SWAP1 POP SWAP2 SWAP1 POP JUMP JUMPDEST PUSH0 DUP2 SWAP1 POP SWAP2 SWAP1 POP JUMP JUMPDEST PUSH0 PUSH2 0xB92 PUSH2 0xB8D PUSH2 0xB88 DUP5 PUSH2 0xB5A JUMP JUMPDEST PUSH2 0xB6F JUMP JUMPDEST PUSH2 0xB63 JUMP JUMPDEST SWAP1 POP SWAP2 SWAP1 POP JUMP JUMPDEST PUSH2 0xBA2 DUP2 PUSH2 0xB78 JUMP JUMPDEST DUP3 MSTORE POP POP JUMP JUMPDEST PUSH0 PUSH1 0x40 DUP3 ADD SWAP1 POP PUSH2 0xBBB PUSH0 DUP4 ADD DUP6 PUSH2 0xA5E JUMP JUMPDEST PUSH2 0xBC8 PUSH1 0x20 DUP4 ADD DUP5 PUSH2 0xB99 JUMP JUMPDEST SWAP4 SWAP3 POP POP POP JUMP JUMPDEST PUSH0 PUSH1 0x40 DUP3 ADD SWAP1 POP PUSH2 0xBE2 PUSH0 DUP4 ADD DUP6 PUSH2 0xA5E JUMP JUMPDEST PUSH2 0xBEF PUSH1 0x20 DUP4 ADD DUP5 PUSH2 0xA86 JUMP JUMPDEST SWAP4 SWAP3 POP POP POP JUMP JUMPDEST PUSH0 DUP2 SWAP1 POP SWAP3 SWAP2 POP POP JUMP JUMPDEST PUSH0 PUSH2 0xC0A DUP3 PUSH2 0x7DB JUMP JUMPDEST PUSH2 0xC14 DUP2 DUP6 PUSH2 0xBF6 JUMP JUMPDEST SWAP4 POP PUSH2 0xC24 DUP2 DUP6 PUSH1 0x20 DUP7 ADD PUSH2 0x7F5 JUMP JUMPDEST DUP1 DUP5 ADD SWAP2 POP POP SWAP3 SWAP2 POP POP JUMP JUMPDEST PUSH0 PUSH2 0xC3B DUP3 DUP5 PUSH2 0xC00 JUMP JUMPDEST SWAP2 POP DUP2 SWAP1 POP SWAP3 SWAP2 POP POP JUMP JUMPDEST PUSH0 DUP2 SWAP1 POP PUSH1 0x20 DUP3 ADD SWAP1 POP SWAP2 SWAP1 POP JUMP JUMPDEST PUSH0 PUSH2 0xC60 DUP3 MLOAD PUSH2 0x885 JUMP JUMPDEST DUP1 SWAP2 POP POP SWAP2 SWAP1 POP JUMP JUMPDEST PUSH0 DUP3 DUP3 SHL SWAP1 POP SWAP3 SWAP2 POP POP JUMP JUMPDEST PUSH0 PUSH2 0xC7F DUP3 PUSH2 0x7DB JUMP JUMPDEST DUP3 PUSH2 0xC89 DUP5 PUSH2 0xC46 JUMP JUMPDEST SWAP1 POP PUSH2 0xC94 DUP2 PUSH2 0xC55 JUMP JUMPDEST SWAP3 POP PUSH1 0x4 DUP3 LT ISZERO PUSH2 0xCD4 JUMPI PUSH2 0xCCF PUSH32 0xFFFFFFFF00000000000000000000000000000000000000000000000000000000 DUP4 PUSH1 0x4 SUB PUSH1 0x8 MUL PUSH2 0xC69 JUMP JUMPDEST DUP4 AND SWAP3 POP JUMPDEST POP POP SWAP2 SWAP1 POP JUMP JUMPDEST PUSH32 0x4E487B7100000000000000000000000000000000000000000000000000000000 PUSH0 MSTORE PUSH1 0x32 PUSH1 0x4 MSTORE PUSH1 0x24 PUSH0 REVERT JUMPDEST PUSH0 PUSH32 0xFF00000000000000000000000000000000000000000000000000000000000000 DUP3 AND SWAP1 POP SWAP2 SWAP1 POP JUMP JUMPDEST PUSH0 DUP2 SWAP1 POP SWAP2 SWAP1 POP JUMP JUMPDEST PUSH2 0xD4D PUSH2 0xD48 DUP3 PUSH2 0xD08 JUMP JUMPDEST PUSH2 0xD33 JUMP JUMPDEST DUP3 MSTORE POP POP JUMP JUMPDEST PUSH0 PUSH2 0xD5E DUP3 DUP8 PUSH2 0xD3C JUMP JUMPDEST PUSH1 0x1 DUP3 ADD SWAP2 POP PUSH2 0xD6E DUP3 DUP7 PUSH2 0xD3C JUMP JUMPDEST PUSH1 0x1 DUP3 ADD SWAP2 POP PUSH2 0xD7E DUP3 DUP6 PUSH2 0xD3C JUMP JUMPDEST PUSH1 0x1 DUP3 ADD SWAP2 POP PUSH2 0xD8E DUP3 DUP5 PUSH2 0xD3C JUMP JUMPDEST PUSH1 0x1 DUP3 ADD SWAP2 POP DUP2 SWAP1 POP SWAP6 SWAP5 POP POP POP POP POP JUMP INVALID LOG2 PUSH5 0x6970667358 0x22 SLT KECCAK256 STOP 0xAD RETURNDATACOPY 0xB8 PUSH11 0xD6FBDBDECAF505AF85A253 0xB2 SHR DUP6 INVALID 0x21 CREATE2 CALLDATASIZE CALLDATACOPY 0xD8 BASEFEE 0xAD DUP10 PUSH21 0x6332C164736F6C6343000814003300000000000000 "
				},
				"gasEstimates": {
					"creation": {
						"codeDepositCost": "708400",
						"executionCost": "739",
						"totalCost": "709139"
					},
					"external": {
						"callTransferFunctionDirectly(address,uint256)": "infinite",
						"callTransferFunctionDirectlyTwo(address,uint256)": "infinite",
						"getCallData()": "infinite",
						"getDataToCallTransfer(address,uint256)": "infinite",
						"getSelectorFour()": "367",
						"getSelectorOne()": "531",
						"getSelectorThree(bytes)": "759",
						"getSelectorTwo()": "infinite",
						"getSignatureOne()": "infinite",
						"s_amount()": "2491",
						"s_someAddress()": "2527",
						"transfer(address,uint256)": "47000"
					}
				},
				"methodIdentifiers": {
					"callTransferFunctionDirectly(address,uint256)": "a5694e4a",
					"callTransferFunctionDirectlyTwo(address,uint256)": "b20d9446",
					"getCallData()": "0bf9aa4c",
					"getDataToCallTransfer(address,uint256)": "7c0c5f23",
					"getSelectorFour()": "25435a56",
					"getSelectorOne()": "9a41d3ad",
					"getSelectorThree(bytes)": "ce6eb7ff",
					"getSelectorTwo()": "fbf6d515",
					"getSignatureOne()": "852d52fa",
					"s_amount()": "c6e93bad",
					"s_someAddress()": "aad229d5",
					"transfer(address,uint256)": "a9059cbb"
				}
			},
			"storageLayout": {
				"storage": [
					{
						"astId": 3,
						"contract": "Foundry_nft/src/Sublesson/Callanything.sol:CallAnything",
						"label": "s_someAddress",
						"offset": 0,
						"slot": "0",
						"type": "t_address"
					},
					{
						"astId": 5,
						"contract": "Foundry_nft/src/Sublesson/Callanything.sol:CallAnything",
						"label": "s_amount",
						"offset": 0,
						"slot": "1",
						"type": "t_uint256"
					}
				],
				"types": {
					"t_address": {
						"encoding": "inplace",
						"label": "address",
						"numberOfBytes": "20"
					},
					"t_uint256": {
						"encoding": "inplace",
						"label": "uint256",
						"numberOfBytes": "32"
					}
				}
			},
			"userdoc": {
				"kind": "user",
				"methods": {},
				"version": 1
			}
		}
	}
}