{
	"data": {
		"bytecode": {
			"linkReferences": {},
			"object": "608060405234801561000f575f80fd5b50610bb68061001d5f395ff3fe608060405234801561000f575f80fd5b50600436106100b2575f3560e01c8063929b807e1161006f578063929b807e14610168578063a6dc49b814610186578063a77b0360146101a4578063b4748718146101c2578063c452d79b146101e0578063ed5df365146101ff576100b2565b8063114a7610146100b657806315889d1a146100d45780632085f4b9146100f2578063406ec9f21461011057806351cff8d91461012e57806360ee46c31461014a575b5f80fd5b6100be61021d565b6040516100cb9190610521565b60405180910390f35b6100dc610242565b6040516100e99190610593565b60405180910390f35b6100fa61026f565b6040516101079190610593565b60405180910390f35b610118610299565b6040516101259190610593565b60405180910390f35b6101486004803603810190610143919061061e565b6102db565b005b610152610387565b60405161015f9190610521565b60405180910390f35b61017061039b565b60405161017d9190610521565b60405180910390f35b61018e6103c2565b60405161019b9190610593565b60405180910390f35b6101ac6103ec565b6040516101b99190610521565b60405180910390f35b6101ca610413565b6040516101d79190610593565b60405180910390f35b6101e861043d565b6040516101f6929190610649565b60405180910390f35b61020761046d565b6040516102149190610593565b60405180910390f35b606060405160200161022e9061071c565b604051602081830303815290604052905090565b60605f60016040516020016102579190610789565b60405160208183030381529060405290508091505090565b60605f604051602001610281906107ec565b60405160208183030381529060405290508091505090565b60605f6040518060400160405280600b81526020017f736f6d6520737472696e6700000000000000000000000000000000000000000081525090508091505090565b5f8173ffffffffffffffffffffffffffffffffffffffff16476040516103009061082d565b5f6040518083038185875af1925050503d805f811461033a576040519150601f19603f3d011682016040523d82523d5f602084013e61033f565b606091505b5050905080610383576040517f08c379a000000000000000000000000000000000000000000000000000000000815260040161037a9061088b565b60405180910390fd5b5050565b60605f610392610413565b90508091505090565b60605f6103a6610413565b8060200190518101906103b991906109c7565b90508091505090565b60605f6040516020016103d490610a7a565b60405160208183030381529060405290508091505090565b60605f6103f761046d565b80602001905181019061040a91906109c7565b90508091505090565b60605f60405160200161042590610acd565b60405160208183030381529060405290508091505090565b6060805f8061044a6103c2565b80602001905181019061045d9190610aec565b9150915081819350935050509091565b60605f60405160200161047f90610b62565b60405160208183030381529060405290508091505090565b5f81519050919050565b5f82825260208201905092915050565b5f5b838110156104ce5780820151818401526020810190506104b3565b5f8484015250505050565b5f601f19601f8301169050919050565b5f6104f382610497565b6104fd81856104a1565b935061050d8185602086016104b1565b610516816104d9565b840191505092915050565b5f6020820190508181035f83015261053981846104e9565b905092915050565b5f81519050919050565b5f82825260208201905092915050565b5f61056582610541565b61056f818561054b565b935061057f8185602086016104b1565b610588816104d9565b840191505092915050565b5f6020820190508181035f8301526105ab818461055b565b905092915050565b5f604051905090565b5f80fd5b5f80fd5b5f73ffffffffffffffffffffffffffffffffffffffff82169050919050565b5f6105ed826105c4565b9050919050565b6105fd816105e3565b8114610607575f80fd5b50565b5f81359050610618816105f4565b92915050565b5f60208284031215610633576106326105bc565b5b5f6106408482850161060a565b91505092915050565b5f6040820190508181035f83015261066181856104e9565b9050818103602083015261067581846104e9565b90509392505050565b5f81905092915050565b7f4869204d6f6d21200000000000000000000000000000000000000000000000005f82015250565b5f6106bc60088361067e565b91506106c782610688565b600882019050919050565b7f4d69737320796f752e00000000000000000000000000000000000000000000005f82015250565b5f61070660098361067e565b9150610711826106d2565b600982019050919050565b5f610726826106b0565b9150610731826106fa565b9150819050919050565b5f819050919050565b5f60ff82169050919050565b5f819050919050565b5f61077361076e6107698461073b565b610750565b610744565b9050919050565b61078381610759565b82525050565b5f60208201905061079c5f83018461077a565b92915050565b7f736f6d6520737472696e670000000000000000000000000000000000000000005f82015250565b5f6107d6600b8361067e565b91506107e1826107a2565b600b82019050919050565b5f6107f6826107ca565b9150819050919050565b5f81905092915050565b50565b5f6108185f83610800565b91506108238261080a565b5f82019050919050565b5f6108378261080d565b9150819050919050565b7f5472616e73666572204661696c656400000000000000000000000000000000005f82015250565b5f610875600f836104a1565b915061088082610841565b602082019050919050565b5f6020820190508181035f8301526108a281610869565b9050919050565b5f80fd5b5f80fd5b7f4e487b71000000000000000000000000000000000000000000000000000000005f52604160045260245ffd5b6108e7826104d9565b810181811067ffffffffffffffff82111715610906576109056108b1565b5b80604052505050565b5f6109186105b3565b905061092482826108de565b919050565b5f67ffffffffffffffff821115610943576109426108b1565b5b61094c826104d9565b9050602081019050919050565b5f61096b61096684610929565b61090f565b905082815260208101848484011115610987576109866108ad565b5b6109928482856104b1565b509392505050565b5f82601f8301126109ae576109ad6108a9565b5b81516109be848260208601610959565b91505092915050565b5f602082840312156109dc576109db6105bc565b5b5f82015167ffffffffffffffff8111156109f9576109f86105c0565b5b610a058482850161099a565b91505092915050565b5f610a1a600b836104a1565b9150610a25826107a2565b602082019050919050565b7f69742773206269676765722100000000000000000000000000000000000000005f82015250565b5f610a64600c836104a1565b9150610a6f82610a30565b602082019050919050565b5f6040820190508181035f830152610a9181610a0e565b90508181036020830152610aa481610a58565b9050919050565b5f610ab7600c8361067e565b9150610ac282610a30565b600c82019050919050565b5f610ad7826107ca565b9150610ae282610aab565b9150819050919050565b5f8060408385031215610b0257610b016105bc565b5b5f83015167ffffffffffffffff811115610b1f57610b1e6105c0565b5b610b2b8582860161099a565b925050602083015167ffffffffffffffff811115610b4c57610b4b6105c0565b5b610b588582860161099a565b9150509250929050565b5f6020820190508181035f830152610b7981610a0e565b905091905056fea2646970667358221220de37ad64d60e9f61169dc101b59f796afe99579fdca15e2032d6180d0e5516e964736f6c63430008140033",
			"opcodes": "PUSH1 0x80 PUSH1 0x40 MSTORE CALLVALUE DUP1 ISZERO PUSH2 0xF JUMPI PUSH0 DUP1 REVERT JUMPDEST POP PUSH2 0xBB6 DUP1 PUSH2 0x1D PUSH0 CODECOPY PUSH0 RETURN INVALID PUSH1 0x80 PUSH1 0x40 MSTORE CALLVALUE DUP1 ISZERO PUSH2 0xF JUMPI PUSH0 DUP1 REVERT JUMPDEST POP PUSH1 0x4 CALLDATASIZE LT PUSH2 0xB2 JUMPI PUSH0 CALLDATALOAD PUSH1 0xE0 SHR DUP1 PUSH4 0x929B807E GT PUSH2 0x6F JUMPI DUP1 PUSH4 0x929B807E EQ PUSH2 0x168 JUMPI DUP1 PUSH4 0xA6DC49B8 EQ PUSH2 0x186 JUMPI DUP1 PUSH4 0xA77B0360 EQ PUSH2 0x1A4 JUMPI DUP1 PUSH4 0xB4748718 EQ PUSH2 0x1C2 JUMPI DUP1 PUSH4 0xC452D79B EQ PUSH2 0x1E0 JUMPI DUP1 PUSH4 0xED5DF365 EQ PUSH2 0x1FF JUMPI PUSH2 0xB2 JUMP JUMPDEST DUP1 PUSH4 0x114A7610 EQ PUSH2 0xB6 JUMPI DUP1 PUSH4 0x15889D1A EQ PUSH2 0xD4 JUMPI DUP1 PUSH4 0x2085F4B9 EQ PUSH2 0xF2 JUMPI DUP1 PUSH4 0x406EC9F2 EQ PUSH2 0x110 JUMPI DUP1 PUSH4 0x51CFF8D9 EQ PUSH2 0x12E JUMPI DUP1 PUSH4 0x60EE46C3 EQ PUSH2 0x14A JUMPI JUMPDEST PUSH0 DUP1 REVERT JUMPDEST PUSH2 0xBE PUSH2 0x21D JUMP JUMPDEST PUSH1 0x40 MLOAD PUSH2 0xCB SWAP2 SWAP1 PUSH2 0x521 JUMP JUMPDEST PUSH1 0x40 MLOAD DUP1 SWAP2 SUB SWAP1 RETURN JUMPDEST PUSH2 0xDC PUSH2 0x242 JUMP JUMPDEST PUSH1 0x40 MLOAD PUSH2 0xE9 SWAP2 SWAP1 PUSH2 0x593 JUMP JUMPDEST PUSH1 0x40 MLOAD DUP1 SWAP2 SUB SWAP1 RETURN JUMPDEST PUSH2 0xFA PUSH2 0x26F JUMP JUMPDEST PUSH1 0x40 MLOAD PUSH2 0x107 SWAP2 SWAP1 PUSH2 0x593 JUMP JUMPDEST PUSH1 0x40 MLOAD DUP1 SWAP2 SUB SWAP1 RETURN JUMPDEST PUSH2 0x118 PUSH2 0x299 JUMP JUMPDEST PUSH1 0x40 MLOAD PUSH2 0x125 SWAP2 SWAP1 PUSH2 0x593 JUMP JUMPDEST PUSH1 0x40 MLOAD DUP1 SWAP2 SUB SWAP1 RETURN JUMPDEST PUSH2 0x148 PUSH1 0x4 DUP1 CALLDATASIZE SUB DUP2 ADD SWAP1 PUSH2 0x143 SWAP2 SWAP1 PUSH2 0x61E JUMP JUMPDEST PUSH2 0x2DB JUMP JUMPDEST STOP JUMPDEST PUSH2 0x152 PUSH2 0x387 JUMP JUMPDEST PUSH1 0x40 MLOAD PUSH2 0x15F SWAP2 SWAP1 PUSH2 0x521 JUMP JUMPDEST PUSH1 0x40 MLOAD DUP1 SWAP2 SUB SWAP1 RETURN JUMPDEST PUSH2 0x170 PUSH2 0x39B JUMP JUMPDEST PUSH1 0x40 MLOAD PUSH2 0x17D SWAP2 SWAP1 PUSH2 0x521 JUMP JUMPDEST PUSH1 0x40 MLOAD DUP1 SWAP2 SUB SWAP1 RETURN JUMPDEST PUSH2 0x18E PUSH2 0x3C2 JUMP JUMPDEST PUSH1 0x40 MLOAD PUSH2 0x19B SWAP2 SWAP1 PUSH2 0x593 JUMP JUMPDEST PUSH1 0x40 MLOAD DUP1 SWAP2 SUB SWAP1 RETURN JUMPDEST PUSH2 0x1AC PUSH2 0x3EC JUMP JUMPDEST PUSH1 0x40 MLOAD PUSH2 0x1B9 SWAP2 SWAP1 PUSH2 0x521 JUMP JUMPDEST PUSH1 0x40 MLOAD DUP1 SWAP2 SUB SWAP1 RETURN JUMPDEST PUSH2 0x1CA PUSH2 0x413 JUMP JUMPDEST PUSH1 0x40 MLOAD PUSH2 0x1D7 SWAP2 SWAP1 PUSH2 0x593 JUMP JUMPDEST PUSH1 0x40 MLOAD DUP1 SWAP2 SUB SWAP1 RETURN JUMPDEST PUSH2 0x1E8 PUSH2 0x43D JUMP JUMPDEST PUSH1 0x40 MLOAD PUSH2 0x1F6 SWAP3 SWAP2 SWAP1 PUSH2 0x649 JUMP JUMPDEST PUSH1 0x40 MLOAD DUP1 SWAP2 SUB SWAP1 RETURN JUMPDEST PUSH2 0x207 PUSH2 0x46D JUMP JUMPDEST PUSH1 0x40 MLOAD PUSH2 0x214 SWAP2 SWAP1 PUSH2 0x593 JUMP JUMPDEST PUSH1 0x40 MLOAD DUP1 SWAP2 SUB SWAP1 RETURN JUMPDEST PUSH1 0x60 PUSH1 0x40 MLOAD PUSH1 0x20 ADD PUSH2 0x22E SWAP1 PUSH2 0x71C JUMP JUMPDEST PUSH1 0x40 MLOAD PUSH1 0x20 DUP2 DUP4 SUB SUB DUP2 MSTORE SWAP1 PUSH1 0x40 MSTORE SWAP1 POP SWAP1 JUMP JUMPDEST PUSH1 0x60 PUSH0 PUSH1 0x1 PUSH1 0x40 MLOAD PUSH1 0x20 ADD PUSH2 0x257 SWAP2 SWAP1 PUSH2 0x789 JUMP JUMPDEST PUSH1 0x40 MLOAD PUSH1 0x20 DUP2 DUP4 SUB SUB DUP2 MSTORE SWAP1 PUSH1 0x40 MSTORE SWAP1 POP DUP1 SWAP2 POP POP SWAP1 JUMP JUMPDEST PUSH1 0x60 PUSH0 PUSH1 0x40 MLOAD PUSH1 0x20 ADD PUSH2 0x281 SWAP1 PUSH2 0x7EC JUMP JUMPDEST PUSH1 0x40 MLOAD PUSH1 0x20 DUP2 DUP4 SUB SUB DUP2 MSTORE SWAP1 PUSH1 0x40 MSTORE SWAP1 POP DUP1 SWAP2 POP POP SWAP1 JUMP JUMPDEST PUSH1 0x60 PUSH0 PUSH1 0x40 MLOAD DUP1 PUSH1 0x40 ADD PUSH1 0x40 MSTORE DUP1 PUSH1 0xB DUP2 MSTORE PUSH1 0x20 ADD PUSH32 0x736F6D6520737472696E67000000000000000000000000000000000000000000 DUP2 MSTORE POP SWAP1 POP DUP1 SWAP2 POP POP SWAP1 JUMP JUMPDEST PUSH0 DUP2 PUSH20 0xFFFFFFFFFFFFFFFFFFFFFFFFFFFFFFFFFFFFFFFF AND SELFBALANCE PUSH1 0x40 MLOAD PUSH2 0x300 SWAP1 PUSH2 0x82D JUMP JUMPDEST PUSH0 PUSH1 0x40 MLOAD DUP1 DUP4 SUB DUP2 DUP6 DUP8 GAS CALL SWAP3 POP POP POP RETURNDATASIZE DUP1 PUSH0 DUP2 EQ PUSH2 0x33A JUMPI PUSH1 0x40 MLOAD SWAP2 POP PUSH1 0x1F NOT PUSH1 0x3F RETURNDATASIZE ADD AND DUP3 ADD PUSH1 0x40 MSTORE RETURNDATASIZE DUP3 MSTORE RETURNDATASIZE PUSH0 PUSH1 0x20 DUP5 ADD RETURNDATACOPY PUSH2 0x33F JUMP JUMPDEST PUSH1 0x60 SWAP2 POP JUMPDEST POP POP SWAP1 POP DUP1 PUSH2 0x383 JUMPI PUSH1 0x40 MLOAD PUSH32 0x8C379A000000000000000000000000000000000000000000000000000000000 DUP2 MSTORE PUSH1 0x4 ADD PUSH2 0x37A SWAP1 PUSH2 0x88B JUMP JUMPDEST PUSH1 0x40 MLOAD DUP1 SWAP2 SUB SWAP1 REVERT JUMPDEST POP POP JUMP JUMPDEST PUSH1 0x60 PUSH0 PUSH2 0x392 PUSH2 0x413 JUMP JUMPDEST SWAP1 POP DUP1 SWAP2 POP POP SWAP1 JUMP JUMPDEST PUSH1 0x60 PUSH0 PUSH2 0x3A6 PUSH2 0x413 JUMP JUMPDEST DUP1 PUSH1 0x20 ADD SWAP1 MLOAD DUP2 ADD SWAP1 PUSH2 0x3B9 SWAP2 SWAP1 PUSH2 0x9C7 JUMP JUMPDEST SWAP1 POP DUP1 SWAP2 POP POP SWAP1 JUMP JUMPDEST PUSH1 0x60 PUSH0 PUSH1 0x40 MLOAD PUSH1 0x20 ADD PUSH2 0x3D4 SWAP1 PUSH2 0xA7A JUMP JUMPDEST PUSH1 0x40 MLOAD PUSH1 0x20 DUP2 DUP4 SUB SUB DUP2 MSTORE SWAP1 PUSH1 0x40 MSTORE SWAP1 POP DUP1 SWAP2 POP POP SWAP1 JUMP JUMPDEST PUSH1 0x60 PUSH0 PUSH2 0x3F7 PUSH2 0x46D JUMP JUMPDEST DUP1 PUSH1 0x20 ADD SWAP1 MLOAD DUP2 ADD SWAP1 PUSH2 0x40A SWAP2 SWAP1 PUSH2 0x9C7 JUMP JUMPDEST SWAP1 POP DUP1 SWAP2 POP POP SWAP1 JUMP JUMPDEST PUSH1 0x60 PUSH0 PUSH1 0x40 MLOAD PUSH1 0x20 ADD PUSH2 0x425 SWAP1 PUSH2 0xACD JUMP JUMPDEST PUSH1 0x40 MLOAD PUSH1 0x20 DUP2 DUP4 SUB SUB DUP2 MSTORE SWAP1 PUSH1 0x40 MSTORE SWAP1 POP DUP1 SWAP2 POP POP SWAP1 JUMP JUMPDEST PUSH1 0x60 DUP1 PUSH0 DUP1 PUSH2 0x44A PUSH2 0x3C2 JUMP JUMPDEST DUP1 PUSH1 0x20 ADD SWAP1 MLOAD DUP2 ADD SWAP1 PUSH2 0x45D SWAP2 SWAP1 PUSH2 0xAEC JUMP JUMPDEST SWAP2 POP SWAP2 POP DUP2 DUP2 SWAP4 POP SWAP4 POP POP POP SWAP1 SWAP2 JUMP JUMPDEST PUSH1 0x60 PUSH0 PUSH1 0x40 MLOAD PUSH1 0x20 ADD PUSH2 0x47F SWAP1 PUSH2 0xB62 JUMP JUMPDEST PUSH1 0x40 MLOAD PUSH1 0x20 DUP2 DUP4 SUB SUB DUP2 MSTORE SWAP1 PUSH1 0x40 MSTORE SWAP1 POP DUP1 SWAP2 POP POP SWAP1 JUMP JUMPDEST PUSH0 DUP2 MLOAD SWAP1 POP SWAP2 SWAP1 POP JUMP JUMPDEST PUSH0 DUP3 DUP3 MSTORE PUSH1 0x20 DUP3 ADD SWAP1 POP SWAP3 SWAP2 POP POP JUMP JUMPDEST PUSH0 JUMPDEST DUP4 DUP2 LT ISZERO PUSH2 0x4CE JUMPI DUP1 DUP3 ADD MLOAD DUP2 DUP5 ADD MSTORE PUSH1 0x20 DUP2 ADD SWAP1 POP PUSH2 0x4B3 JUMP JUMPDEST PUSH0 DUP5 DUP5 ADD MSTORE POP POP POP POP JUMP JUMPDEST PUSH0 PUSH1 0x1F NOT PUSH1 0x1F DUP4 ADD AND SWAP1 POP SWAP2 SWAP1 POP JUMP JUMPDEST PUSH0 PUSH2 0x4F3 DUP3 PUSH2 0x497 JUMP JUMPDEST PUSH2 0x4FD DUP2 DUP6 PUSH2 0x4A1 JUMP JUMPDEST SWAP4 POP PUSH2 0x50D DUP2 DUP6 PUSH1 0x20 DUP7 ADD PUSH2 0x4B1 JUMP JUMPDEST PUSH2 0x516 DUP2 PUSH2 0x4D9 JUMP JUMPDEST DUP5 ADD SWAP2 POP POP SWAP3 SWAP2 POP POP JUMP JUMPDEST PUSH0 PUSH1 0x20 DUP3 ADD SWAP1 POP DUP2 DUP2 SUB PUSH0 DUP4 ADD MSTORE PUSH2 0x539 DUP2 DUP5 PUSH2 0x4E9 JUMP JUMPDEST SWAP1 POP SWAP3 SWAP2 POP POP JUMP JUMPDEST PUSH0 DUP2 MLOAD SWAP1 POP SWAP2 SWAP1 POP JUMP JUMPDEST PUSH0 DUP3 DUP3 MSTORE PUSH1 0x20 DUP3 ADD SWAP1 POP SWAP3 SWAP2 POP POP JUMP JUMPDEST PUSH0 PUSH2 0x565 DUP3 PUSH2 0x541 JUMP JUMPDEST PUSH2 0x56F DUP2 DUP6 PUSH2 0x54B JUMP JUMPDEST SWAP4 POP PUSH2 0x57F DUP2 DUP6 PUSH1 0x20 DUP7 ADD PUSH2 0x4B1 JUMP JUMPDEST PUSH2 0x588 DUP2 PUSH2 0x4D9 JUMP JUMPDEST DUP5 ADD SWAP2 POP POP SWAP3 SWAP2 POP POP JUMP JUMPDEST PUSH0 PUSH1 0x20 DUP3 ADD SWAP1 POP DUP2 DUP2 SUB PUSH0 DUP4 ADD MSTORE PUSH2 0x5AB DUP2 DUP5 PUSH2 0x55B JUMP JUMPDEST SWAP1 POP SWAP3 SWAP2 POP POP JUMP JUMPDEST PUSH0 PUSH1 0x40 MLOAD SWAP1 POP SWAP1 JUMP JUMPDEST PUSH0 DUP1 REVERT JUMPDEST PUSH0 DUP1 REVERT JUMPDEST PUSH0 PUSH20 0xFFFFFFFFFFFFFFFFFFFFFFFFFFFFFFFFFFFFFFFF DUP3 AND SWAP1 POP SWAP2 SWAP1 POP JUMP JUMPDEST PUSH0 PUSH2 0x5ED DUP3 PUSH2 0x5C4 JUMP JUMPDEST SWAP1 POP SWAP2 SWAP1 POP JUMP JUMPDEST PUSH2 0x5FD DUP2 PUSH2 0x5E3 JUMP JUMPDEST DUP2 EQ PUSH2 0x607 JUMPI PUSH0 DUP1 REVERT JUMPDEST POP JUMP JUMPDEST PUSH0 DUP2 CALLDATALOAD SWAP1 POP PUSH2 0x618 DUP2 PUSH2 0x5F4 JUMP JUMPDEST SWAP3 SWAP2 POP POP JUMP JUMPDEST PUSH0 PUSH1 0x20 DUP3 DUP5 SUB SLT ISZERO PUSH2 0x633 JUMPI PUSH2 0x632 PUSH2 0x5BC JUMP JUMPDEST JUMPDEST PUSH0 PUSH2 0x640 DUP5 DUP3 DUP6 ADD PUSH2 0x60A JUMP JUMPDEST SWAP2 POP POP SWAP3 SWAP2 POP POP JUMP JUMPDEST PUSH0 PUSH1 0x40 DUP3 ADD SWAP1 POP DUP2 DUP2 SUB PUSH0 DUP4 ADD MSTORE PUSH2 0x661 DUP2 DUP6 PUSH2 0x4E9 JUMP JUMPDEST SWAP1 POP DUP2 DUP2 SUB PUSH1 0x20 DUP4 ADD MSTORE PUSH2 0x675 DUP2 DUP5 PUSH2 0x4E9 JUMP JUMPDEST SWAP1 POP SWAP4 SWAP3 POP POP POP JUMP JUMPDEST PUSH0 DUP2 SWAP1 POP SWAP3 SWAP2 POP POP JUMP JUMPDEST PUSH32 0x4869204D6F6D2120000000000000000000000000000000000000000000000000 PUSH0 DUP3 ADD MSTORE POP JUMP JUMPDEST PUSH0 PUSH2 0x6BC PUSH1 0x8 DUP4 PUSH2 0x67E JUMP JUMPDEST SWAP2 POP PUSH2 0x6C7 DUP3 PUSH2 0x688 JUMP JUMPDEST PUSH1 0x8 DUP3 ADD SWAP1 POP SWAP2 SWAP1 POP JUMP JUMPDEST PUSH32 0x4D69737320796F752E0000000000000000000000000000000000000000000000 PUSH0 DUP3 ADD MSTORE POP JUMP JUMPDEST PUSH0 PUSH2 0x706 PUSH1 0x9 DUP4 PUSH2 0x67E JUMP JUMPDEST SWAP2 POP PUSH2 0x711 DUP3 PUSH2 0x6D2 JUMP JUMPDEST PUSH1 0x9 DUP3 ADD SWAP1 POP SWAP2 SWAP1 POP JUMP JUMPDEST PUSH0 PUSH2 0x726 DUP3 PUSH2 0x6B0 JUMP JUMPDEST SWAP2 POP PUSH2 0x731 DUP3 PUSH2 0x6FA JUMP JUMPDEST SWAP2 POP DUP2 SWAP1 POP SWAP2 SWAP1 POP JUMP JUMPDEST PUSH0 DUP2 SWAP1 POP SWAP2 SWAP1 POP JUMP JUMPDEST PUSH0 PUSH1 0xFF DUP3 AND SWAP1 POP SWAP2 SWAP1 POP JUMP JUMPDEST PUSH0 DUP2 SWAP1 POP SWAP2 SWAP1 POP JUMP JUMPDEST PUSH0 PUSH2 0x773 PUSH2 0x76E PUSH2 0x769 DUP5 PUSH2 0x73B JUMP JUMPDEST PUSH2 0x750 JUMP JUMPDEST PUSH2 0x744 JUMP JUMPDEST SWAP1 POP SWAP2 SWAP1 POP JUMP JUMPDEST PUSH2 0x783 DUP2 PUSH2 0x759 JUMP JUMPDEST DUP3 MSTORE POP POP JUMP JUMPDEST PUSH0 PUSH1 0x20 DUP3 ADD SWAP1 POP PUSH2 0x79C PUSH0 DUP4 ADD DUP5 PUSH2 0x77A JUMP JUMPDEST SWAP3 SWAP2 POP POP JUMP JUMPDEST PUSH32 0x736F6D6520737472696E67000000000000000000000000000000000000000000 PUSH0 DUP3 ADD MSTORE POP JUMP JUMPDEST PUSH0 PUSH2 0x7D6 PUSH1 0xB DUP4 PUSH2 0x67E JUMP JUMPDEST SWAP2 POP PUSH2 0x7E1 DUP3 PUSH2 0x7A2 JUMP JUMPDEST PUSH1 0xB DUP3 ADD SWAP1 POP SWAP2 SWAP1 POP JUMP JUMPDEST PUSH0 PUSH2 0x7F6 DUP3 PUSH2 0x7CA JUMP JUMPDEST SWAP2 POP DUP2 SWAP1 POP SWAP2 SWAP1 POP JUMP JUMPDEST PUSH0 DUP2 SWAP1 POP SWAP3 SWAP2 POP POP JUMP JUMPDEST POP JUMP JUMPDEST PUSH0 PUSH2 0x818 PUSH0 DUP4 PUSH2 0x800 JUMP JUMPDEST SWAP2 POP PUSH2 0x823 DUP3 PUSH2 0x80A JUMP JUMPDEST PUSH0 DUP3 ADD SWAP1 POP SWAP2 SWAP1 POP JUMP JUMPDEST PUSH0 PUSH2 0x837 DUP3 PUSH2 0x80D JUMP JUMPDEST SWAP2 POP DUP2 SWAP1 POP SWAP2 SWAP1 POP JUMP JUMPDEST PUSH32 0x5472616E73666572204661696C65640000000000000000000000000000000000 PUSH0 DUP3 ADD MSTORE POP JUMP JUMPDEST PUSH0 PUSH2 0x875 PUSH1 0xF DUP4 PUSH2 0x4A1 JUMP JUMPDEST SWAP2 POP PUSH2 0x880 DUP3 PUSH2 0x841 JUMP JUMPDEST PUSH1 0x20 DUP3 ADD SWAP1 POP SWAP2 SWAP1 POP JUMP JUMPDEST PUSH0 PUSH1 0x20 DUP3 ADD SWAP1 POP DUP2 DUP2 SUB PUSH0 DUP4 ADD MSTORE PUSH2 0x8A2 DUP2 PUSH2 0x869 JUMP JUMPDEST SWAP1 POP SWAP2 SWAP1 POP JUMP JUMPDEST PUSH0 DUP1 REVERT JUMPDEST PUSH0 DUP1 REVERT JUMPDEST PUSH32 0x4E487B7100000000000000000000000000000000000000000000000000000000 PUSH0 MSTORE PUSH1 0x41 PUSH1 0x4 MSTORE PUSH1 0x24 PUSH0 REVERT JUMPDEST PUSH2 0x8E7 DUP3 PUSH2 0x4D9 JUMP JUMPDEST DUP2 ADD DUP2 DUP2 LT PUSH8 0xFFFFFFFFFFFFFFFF DUP3 GT OR ISZERO PUSH2 0x906 JUMPI PUSH2 0x905 PUSH2 0x8B1 JUMP JUMPDEST JUMPDEST DUP1 PUSH1 0x40 MSTORE POP POP POP JUMP JUMPDEST PUSH0 PUSH2 0x918 PUSH2 0x5B3 JUMP JUMPDEST SWAP1 POP PUSH2 0x924 DUP3 DUP3 PUSH2 0x8DE JUMP JUMPDEST SWAP2 SWAP1 POP JUMP JUMPDEST PUSH0 PUSH8 0xFFFFFFFFFFFFFFFF DUP3 GT ISZERO PUSH2 0x943 JUMPI PUSH2 0x942 PUSH2 0x8B1 JUMP JUMPDEST JUMPDEST PUSH2 0x94C DUP3 PUSH2 0x4D9 JUMP JUMPDEST SWAP1 POP PUSH1 0x20 DUP2 ADD SWAP1 POP SWAP2 SWAP1 POP JUMP JUMPDEST PUSH0 PUSH2 0x96B PUSH2 0x966 DUP5 PUSH2 0x929 JUMP JUMPDEST PUSH2 0x90F JUMP JUMPDEST SWAP1 POP DUP3 DUP2 MSTORE PUSH1 0x20 DUP2 ADD DUP5 DUP5 DUP5 ADD GT ISZERO PUSH2 0x987 JUMPI PUSH2 0x986 PUSH2 0x8AD JUMP JUMPDEST JUMPDEST PUSH2 0x992 DUP5 DUP3 DUP6 PUSH2 0x4B1 JUMP JUMPDEST POP SWAP4 SWAP3 POP POP POP JUMP JUMPDEST PUSH0 DUP3 PUSH1 0x1F DUP4 ADD SLT PUSH2 0x9AE JUMPI PUSH2 0x9AD PUSH2 0x8A9 JUMP JUMPDEST JUMPDEST DUP2 MLOAD PUSH2 0x9BE DUP5 DUP3 PUSH1 0x20 DUP7 ADD PUSH2 0x959 JUMP JUMPDEST SWAP2 POP POP SWAP3 SWAP2 POP POP JUMP JUMPDEST PUSH0 PUSH1 0x20 DUP3 DUP5 SUB SLT ISZERO PUSH2 0x9DC JUMPI PUSH2 0x9DB PUSH2 0x5BC JUMP JUMPDEST JUMPDEST PUSH0 DUP3 ADD MLOAD PUSH8 0xFFFFFFFFFFFFFFFF DUP2 GT ISZERO PUSH2 0x9F9 JUMPI PUSH2 0x9F8 PUSH2 0x5C0 JUMP JUMPDEST JUMPDEST PUSH2 0xA05 DUP5 DUP3 DUP6 ADD PUSH2 0x99A JUMP JUMPDEST SWAP2 POP POP SWAP3 SWAP2 POP POP JUMP JUMPDEST PUSH0 PUSH2 0xA1A PUSH1 0xB DUP4 PUSH2 0x4A1 JUMP JUMPDEST SWAP2 POP PUSH2 0xA25 DUP3 PUSH2 0x7A2 JUMP JUMPDEST PUSH1 0x20 DUP3 ADD SWAP1 POP SWAP2 SWAP1 POP JUMP JUMPDEST PUSH32 0x6974277320626967676572210000000000000000000000000000000000000000 PUSH0 DUP3 ADD MSTORE POP JUMP JUMPDEST PUSH0 PUSH2 0xA64 PUSH1 0xC DUP4 PUSH2 0x4A1 JUMP JUMPDEST SWAP2 POP PUSH2 0xA6F DUP3 PUSH2 0xA30 JUMP JUMPDEST PUSH1 0x20 DUP3 ADD SWAP1 POP SWAP2 SWAP1 POP JUMP JUMPDEST PUSH0 PUSH1 0x40 DUP3 ADD SWAP1 POP DUP2 DUP2 SUB PUSH0 DUP4 ADD MSTORE PUSH2 0xA91 DUP2 PUSH2 0xA0E JUMP JUMPDEST SWAP1 POP DUP2 DUP2 SUB PUSH1 0x20 DUP4 ADD MSTORE PUSH2 0xAA4 DUP2 PUSH2 0xA58 JUMP JUMPDEST SWAP1 POP SWAP2 SWAP1 POP JUMP JUMPDEST PUSH0 PUSH2 0xAB7 PUSH1 0xC DUP4 PUSH2 0x67E JUMP JUMPDEST SWAP2 POP PUSH2 0xAC2 DUP3 PUSH2 0xA30 JUMP JUMPDEST PUSH1 0xC DUP3 ADD SWAP1 POP SWAP2 SWAP1 POP JUMP JUMPDEST PUSH0 PUSH2 0xAD7 DUP3 PUSH2 0x7CA JUMP JUMPDEST SWAP2 POP PUSH2 0xAE2 DUP3 PUSH2 0xAAB JUMP JUMPDEST SWAP2 POP DUP2 SWAP1 POP SWAP2 SWAP1 POP JUMP JUMPDEST PUSH0 DUP1 PUSH1 0x40 DUP4 DUP6 SUB SLT ISZERO PUSH2 0xB02 JUMPI PUSH2 0xB01 PUSH2 0x5BC JUMP JUMPDEST JUMPDEST PUSH0 DUP4 ADD MLOAD PUSH8 0xFFFFFFFFFFFFFFFF DUP2 GT ISZERO PUSH2 0xB1F JUMPI PUSH2 0xB1E PUSH2 0x5C0 JUMP JUMPDEST JUMPDEST PUSH2 0xB2B DUP6 DUP3 DUP7 ADD PUSH2 0x99A JUMP JUMPDEST SWAP3 POP POP PUSH1 0x20 DUP4 ADD MLOAD PUSH8 0xFFFFFFFFFFFFFFFF DUP2 GT ISZERO PUSH2 0xB4C JUMPI PUSH2 0xB4B PUSH2 0x5C0 JUMP JUMPDEST JUMPDEST PUSH2 0xB58 DUP6 DUP3 DUP7 ADD PUSH2 0x99A JUMP JUMPDEST SWAP2 POP POP SWAP3 POP SWAP3 SWAP1 POP JUMP JUMPDEST PUSH0 PUSH1 0x20 DUP3 ADD SWAP1 POP DUP2 DUP2 SUB PUSH0 DUP4 ADD MSTORE PUSH2 0xB79 DUP2 PUSH2 0xA0E JUMP JUMPDEST SWAP1 POP SWAP2 SWAP1 POP JUMP INVALID LOG2 PUSH5 0x6970667358 0x22 SLT KECCAK256 0xDE CALLDATACOPY 0xAD PUSH5 0xD60E9F6116 SWAP14 0xC1 ADD 0xB5 SWAP16 PUSH26 0x6AFE99579FDCA15E2032D6180D0E5516E964736F6C6343000814 STOP CALLER "
		},
		"gasEstimates": {
			"creation": {
				"codeDepositCost": "599600",
				"executionCost": "630",
				"totalCost": "600230"
			},
			"external": {
				"combineStrings()": "infinite",
				"decodeString()": "infinite",
				"encodeNumber()": "infinite",
				"encodeString()": "infinite",
				"encodeStringBytes()": "infinite",
				"encodeStringPacked()": "infinite",
				"multiDecode()": "infinite",
				"multiDecodePacked()": "infinite",
				"multiEncode()": "infinite",
				"multiEncodePacked()": "infinite",
				"multiStringCastPacked()": "infinite",
				"withdraw(address)": "infinite"
			}
		},
		"methodIdentifiers": {
			"combineStrings()": "114a7610",
			"decodeString()": "a77b0360",
			"encodeNumber()": "15889d1a",
			"encodeString()": "ed5df365",
			"encodeStringBytes()": "406ec9f2",
			"encodeStringPacked()": "2085f4b9",
			"multiDecode()": "c452d79b",
			"multiDecodePacked()": "929b807e",
			"multiEncode()": "a6dc49b8",
			"multiEncodePacked()": "b4748718",
			"multiStringCastPacked()": "60ee46c3",
			"withdraw(address)": "51cff8d9"
		}
	},
	"abi": [
		{
			"inputs": [],
			"name": "combineStrings",
			"outputs": [
				{
					"internalType": "string",
					"name": "",
					"type": "string"
				}
			],
			"stateMutability": "pure",
			"type": "function"
		},
		{
			"inputs": [],
			"name": "decodeString",
			"outputs": [
				{
					"internalType": "string",
					"name": "",
					"type": "string"
				}
			],
			"stateMutability": "pure",
			"type": "function"
		},
		{
			"inputs": [],
			"name": "encodeNumber",
			"outputs": [
				{
					"internalType": "bytes",
					"name": "",
					"type": "bytes"
				}
			],
			"stateMutability": "pure",
			"type": "function"
		},
		{
			"inputs": [],
			"name": "encodeString",
			"outputs": [
				{
					"internalType": "bytes",
					"name": "",
					"type": "bytes"
				}
			],
			"stateMutability": "pure",
			"type": "function"
		},
		{
			"inputs": [],
			"name": "encodeStringBytes",
			"outputs": [
				{
					"internalType": "bytes",
					"name": "",
					"type": "bytes"
				}
			],
			"stateMutability": "pure",
			"type": "function"
		},
		{
			"inputs": [],
			"name": "encodeStringPacked",
			"outputs": [
				{
					"internalType": "bytes",
					"name": "",
					"type": "bytes"
				}
			],
			"stateMutability": "pure",
			"type": "function"
		},
		{
			"inputs": [],
			"name": "multiDecode",
			"outputs": [
				{
					"internalType": "string",
					"name": "",
					"type": "string"
				},
				{
					"internalType": "string",
					"name": "",
					"type": "string"
				}
			],
			"stateMutability": "pure",
			"type": "function"
		},
		{
			"inputs": [],
			"name": "multiDecodePacked",
			"outputs": [
				{
					"internalType": "string",
					"name": "",
					"type": "string"
				}
			],
			"stateMutability": "pure",
			"type": "function"
		},
		{
			"inputs": [],
			"name": "multiEncode",
			"outputs": [
				{
					"internalType": "bytes",
					"name": "",
					"type": "bytes"
				}
			],
			"stateMutability": "pure",
			"type": "function"
		},
		{
			"inputs": [],
			"name": "multiEncodePacked",
			"outputs": [
				{
					"internalType": "bytes",
					"name": "",
					"type": "bytes"
				}
			],
			"stateMutability": "pure",
			"type": "function"
		},
		{
			"inputs": [],
			"name": "multiStringCastPacked",
			"outputs": [
				{
					"internalType": "string",
					"name": "",
					"type": "string"
				}
			],
			"stateMutability": "pure",
			"type": "function"
		},
		{
			"inputs": [
				{
					"internalType": "address",
					"name": "recentWinner",
					"type": "address"
				}
			],
			"name": "withdraw",
			"outputs": [],
			"stateMutability": "nonpayable",
			"type": "function"
		}
	]
}